:020000040800F2
:10000000B0140020D5000008B10C00086B0B0008EC
:1000100000000000000000000000000000000000E0
:100020000000000000000000000000006D0F00084C
:1000300000000000000000009D0D00080B110008EA
:10004000E7000008E7000008E7000008E7000008F4
:10005000E700000855090008E7000008E70000086D
:10006000E7000008E7000008E7000008EF070008C5
:10007000E7000008E7000008E7000008E7000008C4
:10008000E7000008E700000800000000E7000008A3
:10009000E7000008E7000008E7000008E7000008A4
:1000A000E7000008E7000008E7000008E700000894
:1000B0003912000800000000E700000800000000FE
:1000C0000348854600F04EF800480047B117000885
:1000D000B01400200448804704480047FEE7FEE7CC
:1000E000FEE7FEE7FEE7FEE7BD110008C1000008DD
:1000F00030B50B46014600202022012409E00D46C0
:10010000D5409D4205D31D469540491B2546954047
:1001100040191546521E002DF1DC30BD03460B433D
:100120009B0703D009E008C9121F08C0042AFAD2AD
:1001300003E00B78491C0370401C521EF9D2704733
:10014000D2B201E00270401C491EFBD2704700226F
:10015000F6E710B513460A4604461946FFF7F0FFC6
:10016000204610BD064C0125064E05E02046E368FA
:1001700007C82B4398471034B442F7D3FFF7A4FFC6
:10018000D4190008F4190008F0B585B04448C08BB4
:10019000444A104301460F2000F090FA00BF0F20A0
:1001A00000F058F904463F480442F8D10E2000F010
:1001B00051F904462007000F0390E512E006C60F30
:1001C000002E01D000F030FC0A2000F02FF9044688
:1001D0002007000F0190E006C00F00900098002853
:1001E00001D000F021FC132189020C2000F066FAF6
:1001F0001F21C902022000F039FA2B48008807228B
:10020000520310430146002000F030FA2448C08B0E
:1002100001221203104301460F2000F04FFA00BFE5
:100220000F2000F017F90446012000030442F7D123
:100230001B48018B0C2000F041FA1B4881880220EA
:1002400000F014FA18480188002000F00FFA144852
:100250004188012000F032FA11488188022000F024
:100260002DFA0F48C08B0422104301460F2000F0E6
:1002700025FA00BF0F2000F0EDF8044604200442E8
:10028000F8D10E2000F0E6F804462006400F029058
:10029000E005C70F002F01D000F0C6FB05B0F0BD90
:1002A00048000020020800006800002070B500240B
:1002B00007E060001B4A115A204600F0FFF9601C5D
:1002C000C4B2082CF5DB0A2407E06000154A115A75
:1002D000204600F0F3F9601CC4B2102CF5DB0024BA
:1002E00007E06000104A115A204600F0BFF9601C78
:1002F000C4B2102CF5DB002407E060000B4A115A51
:10030000204600F0C7F9601CC4B2052CF5DB0020C4
:1003100000F0A0F8054603480188A94201D000F08A
:1003200083FB70BD4800002068000020880000208A
:100330000EB50121084600F053FD0021084600F0EB
:1003400017FE012000F012FB0120019000216846F9
:1003500001720C2141720121817201A800F020FB81
:1003600005216846017001214170817000F0A2FCF6
:100370000EBD000010B5002000F04AF80C2000F07F
:1003800069F8C4B2012000F043F8074800788442BD
:1003900001DA0548047005480078844201DD03480D
:1003A0000470204610BD0000AD000020AC0000200D
:1003B00010B50446A200044B9A5A91B2A200034B16
:1003C000985800F0CEFB10BDBC1900089400002026
:1003D00010B50446A200044B9A5A91B2A200034BF6
:1003E000985800F0B5FB10BDBC190008940000201F
:1003F00010B50446A200044B9A5A91B2A200034BD6
:10040000985800F0B0FB10BDBC1900089400002003
:1004100038B50446012000F0A9FA052168460170AC
:1004200001214170847000F045FC38BD70B5044670
:10043000254628030649C989084385B2294607206D
:1004400000F03CF9082000F005F80546284670BD8C
:100450004800002070B504460020FFF7A9FF802067
:100460000443002515E08020044203D00220FFF75A
:10047000BFFF02E00220FFF79BFF00BF0120FFF754
:10048000B7FF00BF0120FFF793FF6006040E681C52
:10049000C5B2082DE7DB00BF0220FFF7A9FF00204F
:1004A00000F086FD002513E00220FFF791FF0028F1
:1004B00003D07000401C86B201E07004060C0120DD
:1004C000FFF796FF00BF0120FFF772FF681CC5B25F
:1004D000102DE9DB0020FFF78BFF012000F068FD05
:1004E000304670BDF8B504460D46002601270020B1
:1004F000FFF78EFF142000F0E5FD002000F09AFACF
:100500002946204600F019F91A2000F0DBFD0120F1
:1005100000F090FA002000F08DFA182000F0D2FDD3
:10052000012000F087FA0120FFF772FF0120F8BDDB
:10053000F8B50646002E01D1254D09E0012E01D166
:10054000244D05E0022E01D1234D01E00120F8BD2C
:100550000020FFF75DFF142000F0B4FD002000F044
:1005600069FA1E484088FF22120210402A0C1043EC
:100570000146012000F0A2F8A9B2022000F09EF886
:100580001648C08B0422104301460F2000F096F855
:1005900000BF0F20FFF75EFF044604200442F8D19D
:1005A0000E20FFF757FF04462006400F0090E0059D
:1005B000C70F182000F086FD012000F03BFA012053
:1005C000FFF726FF002F01D00120C0E70020BEE783
:1005D0006BE62100D1F7210005D42100480000205E
:1005E000FEB520A103C9029101900020FFF7E0FEB3
:1005F000202000F0DFF8002405E001A9085D00F0EC
:10060000D9F8601CC4B2042CF7DB0020FFF7F0FE21
:100610000020FFF7CDFEA02000F0CCF800F0A6F8F7
:10062000054600F0A3F8064600F0A0F8074600F0E3
:100630009DF800900020FFF7DBFE68460079A84295
:100640000CD168464079B04208D168468079B842FA
:1006500004D16846C1790098814201D000F0E4F9E4
:10066000FEBD00003475C58CC73345E770B5044640
:100670000E46254628030649C989084385B22946FE
:10068000072000F01BF83146082000F017F870BD75
:100690004800002070B504460E462546E80106498C
:1006A000C989084385B22946072000F007F831467A
:1006B000092000F003F870BD4800002070B5044622
:1006C0000E460020FFF774FE00BF002514E08020D6
:1006D000044203D00220FFF78BFE02E00220FFF766
:1006E00067FE0120FFF784FE00BF0120FFF760FED8
:1006F0006006040E681CC5B2082DE8DB00BF0025AB
:1007000015E00120C003064203D00220FFF770FE6F
:1007100002E00220FFF74CFE0120FFF769FE00BF58
:100720000120FFF745FE7004060C681CC5B2102DB1
:10073000E7DB0020FFF75CFE70BD70B504460D4698
:10074000602000F0BFFC0020FFF732FE402000F0E8
:1007500031F803E02078641C00F02CF82846691E6C
:10076000CDB20028F6D1FFF743FE70BD70B5022070
:10077000FFF73EFE002000F01BFC002513E00220E6
:10078000FFF726FE002803D06000401CC4B201E041
:100790006006040E0120FFF72BFE00BF0120FFF7CB
:1007A00007FE681CC5B2082DE9DB012000F000FC43
:1007B000204670BD70B50446002515E08020044237
:1007C00003D00220FFF714FE02E00220FFF7F0FD45
:1007D00000BF0120FFF70CFE00BF0120FFF7E8FD7E
:1007E0006006040E681CC5B2082DE7DB70BD10B5AD
:1007F0000120400400F06EF8002805D001204004DC
:1008000000F004F800F0AEFF10BD000001494860A0
:100810007047000000000240002904D00268012354
:100820001A43026003E00268014B1A4002607047FD
:10083000FEFF00000168254A1140016000210160AF
:1008400041608160C1602249884208D1204908394D
:1008500049680F2211431E4A083A516035E01C498D
:100860001431884208D11A4908394968F0221143E5
:10087000174A083A516028E015492831884209D1C1
:100880001349083949680F2212021143104A083AE5
:1008900051601AE00E493C31884209D10C490839AF
:1008A00049680F2212031143094A083A51600CE0CB
:1008B00007495031884208D10549083949680F2253
:1008C00012041143024A083A51607047FEFF0000CB
:1008D0000800024001460020034A12680A4201D083
:1008E000012000E00020704700000240002A03D0F1
:1008F00003680B43036002E003688B4303607047A7
:1009000010B5002202680D4B1A400C6A8B68234315
:100910000C6923434C6923438C692343CC692343EB
:100920004C6A23438C6A23431A430260CB684360BA
:100930000B6883604B68C36010BD00000F80FFFF31
:100940000349086000BF024909680029FBD17047CC
:100950002000002010B5012000F00EF8002804D07F
:1009600000F02CFE012000F001F810BD01494861A3
:100970007047000000040140014600200022074BA0
:100980001B680B401A46054B5B690B4203D0002ADB
:1009900001D0012000E00020704700000004014069
:1009A000002120498279002A35D00A46126803685E
:1009B0009A430B461A600A46526803689A430B46EC
:1009C0005A60027951180A6803681A430A60154A86
:1009D000926803689A43134B9A601A46D268036878
:1009E0009A43104BDA604279102A0CD11A46926869
:1009F00003681A430B4B9A601A46D26803681A437D
:100A0000084BDA600DE00749427951180A6803681B
:100A10001A430A6005E0027951180A6803689A438C
:100A20000A6070470004014000BFFEE710B500F007
:100A3000BBF810BD70B5054600240026002D09D175
:100A400000E0641C0420FFF7C3FC002802D00A4821
:100A50008442F6D3012D09D100E0641C0420FFF785
:100A6000B7FC002802D104488442F6D302488442ED
:100A700000D20126304670BD204E0000F0B50A4677
:100A800000210023002400BF3DE001258D402B46BE
:100A900015681D402C469C4234D11579012D02D099
:100AA0001579022D16D185684F000326BE40B54347
:100AB000856055794E00B5408668354385608588E8
:100AC00001268E40B5438580858896798E40B6B2E2
:100AD0003543858005684F000326BE40B543056059
:100AE00015794E00B540066835430560C5684F006E
:100AF0000326BE40B543C560D5794E00B540C668F3
:100B00003543C560491C1029BFD3F0BDF0B50023A3
:100B100000244D07EE0E1546B5402B46CD10AE0015
:100B200005462035AD594E07F70E0F26BE40B5439A
:100B3000CE10B60007462037BD51CD10AE003D4661
:100B4000AD591D432C46CD10AD003E467451F0BD4D
:100B500002460020138A0B4201D0012000E0002051
:100B60007047018570478161704700BFFEE7000054
:100B70000148024908607047CCCC000000300040BA
:100B800010B5074800F024F8062000F015F80548D5
:100B900000F018F800F008F8FFF7EAFF10BD0000B9
:100BA000555500000D0300000148024908607047D8
:100BB000AAAA0000003000400149486070470000C8
:100BC000003000400149886070470000003000405C
:100BD00001490860704700000030004010B500F087
:100BE000BBFC0020FFF704FC0120FFF7E1FB7020B5
:100BF00000F068FA0120FFF7A3FEFFF757FB012082
:100C0000FFF79EFEFFF7ECFC0120FFF799FE142092
:100C100000F058FA0120FFF793FEFFF7B5FA18200D
:100C200000F050FA0120FFF705FFFFF781FB10BD30
:100C3000FEB50546002000900190029000266C460B
:100C40005A2020705B20E071687800282CD16879E8
:100C500029790002084315498870000AC870E878AD
:100C6000A9780002084311490870000A4870A87961
:100C70000871772060704878097800020843A070F6
:100C8000000AE07009480079A0710849C87889789D
:100C9000000208432071000A607104490879FFF7D7
:100CA00047FC204600F05EFEFEBD00001400002060
:100CB0007047000000218278002A27D0184A0323B9
:100CC0001B02D21803789B109B00D1580278920720
:100CD000D30EFF229A400B4693431946427892075F
:100CE000120E03789B07DB0E9A4011430C4A032334
:100CF0001B02D21803789B109B00D1500278D306B8
:100D0000DB0E01229A40064B1A6007E00278D306F8
:100D1000DB0E01229A40024B80331A6070470000BC
:100D200000E100E010B5002819DA1A4A03071B0F8A
:100D3000083B9B089B00D2588307DC0EFF23A3408F
:100D40009A438B071B0E8407E40EA3401A43114BF2
:100D50000407240F083CA408A4001A5118E00E4A06
:100D600003231B02D21883089B00D2588307DC0E92
:100D7000FF23A3409A438B071B0E8407E40EA34076
:100D80001A43054B032424021B198408A4001A519A
:100D900010BD00001CED00E000E100E07047000025
:100DA000002905D0054A52690243044B5A6104E008
:100DB000024A52698243014B5A6170470010024057
:100DC000002905D0054AD2690243044BDA6104E0E8
:100DD000024AD2698243014BDA6170470010024037
:100DE000002905D0054A92690243044B9A6104E048
:100DF000024A92698243014B9A6170470010024097
:100E0000FEB5044600250026002001900090002732
:100E1000504840680C2108400546002D04D0042DA0
:100E200005D0082D28D105E04B48206027E04A482E
:100E3000206024E0474840680F21890408400646A6
:100E4000444840680121090408400190B00C861C08
:100E50000198002803D14148704320600BE03D48D1
:100E6000C06A0007000F401C00903B480099FFF744
:100E70003FF97043206002E03748206000BF00BFA8
:100E800034484068F021084005462D093448475D44
:100E90002068F84060602F48406807210902084038
:100EA00005462D0A2E48475D6068F840A060294835
:100EB000006BFF2101310840884202D02948E060E0
:100EC0000DE024484068012189030840884203D08E
:100ED000A0684008E06002E0A0688008E0601D486B
:100EE000006B40210840402802D01F48206102E0EA
:100EF0000120C00320611748006B10210840102812
:100F000002D01548606101E0206860611148006B03
:100F10008007800F02D1A068A06119E00D48006B26
:100F20008007800F012802D12068A06110E00948E5
:100F3000006B8007800F022802D18003A06107E0C8
:100F40000448006B8007800F032801D10248A0618C
:100F5000FEBD00000010024000127A0000093D00B2
:100F600038000020809FD5001280000070470000EC
:100F700030B500228B071C0F0F23A3401A460B4BE2
:100F80008C10A4001B599343084C8D10AD00635185
:100F900023468C10A4001B598C07250F0446AC4037
:100FA0002343024C8D10AD00635130BD0800014059
:100FB0001CB50446012C0ED140200090012168464A
:100FC0000171002181710221417169460920C00629
:100FD000FFF754FD0BE040200090002168460171AE
:100FE0000121C17169460920C006FFF747FD1CBDFC
:100FF0000CB50020019000903048006801210904E0
:1010000008432E49086000BF2C48006801214904AC
:10101000084000900198401C01900098002804D1DD
:101020000521090201988842EED124480068012177
:101030004904084202D00120009001E00020009005
:101040000098012838D111201D4908601B484068CC
:101050001A494860084640684860084640683F2191
:10106000090488431549486008464068112109046D
:1010700008431249486008460068012109060843F0
:101080000E49086000BF0D4800680121490608426A
:10109000F9D00A484068800880000849486008463E
:1010A0004068022108430549486000BF0348406882
:1010B0000C2108400828F9D10CBD000000100240A6
:1010C0000020024070B504460020FFF771F90025AA
:1010D00015E08020044203D00220FFF789F902E0E6
:1010E0000220FFF765F900BF0120FFF781F900BF7B
:1010F0000120FFF75DF96006040E681CC5B2082DDB
:10110000E7DB0020FFF774F970BD10B500F028F898
:1011100010BD000010B57D21C9000E480068FEF723
:10112000E7FF0446601E0C49884201D901200CE00B
:10113000601E0A4948610321081FFFF7F3FD0020E4
:1011400006498861072008610020002801D000BFFF
:10115000FEE710BD00000020FFFFFF0000E000E000
:1011600010B512480068401C10490860104800681B
:10117000002804D00E480068401E0D4908600D4844
:101180000068401C0B4908600B48008800280BDDF4
:1011900009480088401E0849088008460088002841
:1011A00002D1012000F0F4FB10BD00001C00002063
:1011B00020000020240000202800002010B51B483B
:1011C0000068012108431949086008464068184929
:1011D0000840164948600846006816490840134907
:1011E0000860084600680121890488430F490860A7
:1011F000084640683F21090488430C494860084676
:10120000C06A00090001C8620846006BFF21543122
:101210008843064908630846406B4008400048631D
:1012200000208860FFF7E4FE10BD000000100240BF
:101230000CB8FFF8FFFFF6FE10B50849084800F0AB
:10124000D4F8002808D0064800F06EF9C4B203496B
:10125000034800F05DF800BF10BD00000501050067
:101260000044004000B589B001214804FFF798FD13
:1012700001214804FFF7A4FD012202210920C00634
:10128000FFF744FC012203210920C006FFF73EFCC2
:101290000C200790022108A8017041700021817084
:1012A0000121C17007A90920C006FFF7E7FBE12073
:1012B00040020190002002900390049006900C20C0
:1012C000059001A9054800F0B7F80121034800F096
:1012D00028F800F03DF809B000BD000000440040CF
:1012E00070B505460E46002400BF0BE0295D074897
:1012F00000F01FF900BF4021044800F06DF80028FD
:10130000F9D0641CB442F1DB70BD00000044004021
:1013100010B5002300220B0C01249C4022460262DF
:1013200010BD002904D0026801231A43026003E0C3
:1013300002685208520002607047002A03D0836896
:101340000B43836002E083688B4383607047000037
:1013500000B58DB001210846FFF722FD1B48FFF7BD
:1013600069FA1B4802901B4803900020049040201B
:10137000059000200690802007900020089009909A
:1013800020200A9000020B9000200C9002A90F4828
:10139000FFF7B6FA012202210C48FFF7A7FA0B214A
:1013A00068460171002141710121817101A8FFF797
:1013B00081FC0122402106482438FFF7BEFF0121AD
:1013C0000248FFF729FA0DB000BD000058000240A6
:1013D000244400406C10002002460020D3690B42D8
:1013E00001D0012000E00020704770B502460B4696
:1013F00000240021002500201E04350ED9B201264C
:101400008E403146012D02D11668314006E0022D92
:1014100002D15668314001E0966831401C0C01262B
:10142000A6403446D6693440002903D0002C01D0B0
:10143000012000E0002070BDF0B589B005460E46E1
:1014400000240020089000BF00BF2868400840002A
:1014500028606C6803210903204688430446B0686D
:1014600004436C602C682E480440F168706808439F
:101470003169084304432C60AC680321090220460B
:101480008843044670690443AC606846FFF7B8FCC3
:101490002448854202D10698089001E002980890FD
:1014A00028680121C903084209D032685100192374
:1014B000089A5A431046FEF71BFE074608E03268BA
:1014C00091001923089A5A431046FEF711FE074669
:1014D00064213846FEF70CFE0401200964214843CC
:1014E000381A079028680121C90308420AD00799D1
:1014F000C900084632306421FEF7FAFD4007400F6C
:10150000044309E007990901084632306421FEF7D7
:10151000EFFD0007000F0443AC8109B0F0BD0000EF
:10152000F3E9FFFF003801400146888CC005C00D7B
:101530007047CA05D20D0285704702E008C8121F25
:1015400008C1002AFAD170477047002001E001C1AC
:10155000121F002AFBD170471CB501218804FFF738
:101560001FFC01214804FFF71BFCF0200090012123
:10157000684601710021817102214171694609208B
:10158000C006FFF77BFA0120009000216846017138
:101590000221C17169460920C006FFF76FFA0120D8
:1015A000800200900021684601710221C1716946E4
:1015B0000148FFF763FA1CBD00040048F0B593B082
:1015C0000025442102A8FEF7C2FD00200190FEF78D
:1015D000D1FE0190E020FFF775FD0020FEF7E8FE48
:1015E000C020FFF7E7F8FFF7C1F80546002D0FDD33
:1015F0003D2D0DDC68460572002406E0FFF7B6F8C5
:1016000002AA611C5054601CC4B2A81C8442F5DBC1
:101610000020FEF7EDFE02A8005D0102601E02AA96
:10162000105C081887B2691C02A800F00FF886B297
:10163000BE4202D102A800F049F91820FFF742FD8E
:101640000120FFF7F7F913B0F0BD0000F0B5054633
:101650000E46094F002406E0295D384600F024F8C4
:101660000746601C84B2B442F6DB384600F006F848
:1016700007463846F0BD0000FFFF000000210EE0E5
:101680000123DB03184201D0012200E000224304C1
:10169000180C002A01D0034B58404B1CD9B210291A
:1016A000EEDB70472110000030B58022002314E0EB
:1016B0000125ED03284201D0012400E00024450467
:1016C000280C0D46154201D0451CA8B2002C01D0B3
:1016D000034D684052105D1CEBB2082BE8DB30BDB7
:1016E0002110000010B504461048007F1E2800D1CC
:1016F00010BD2178CA1C0D49497F422359430C4B28
:10170000C8182146FEF70AFD0848407F401C0749DB
:1017100048770846007F401C08770846407F1E280F
:1017200001D10020487700BFE2E700000E10002042
:101730006E08002000200A49497F094A127F914221
:1017400006DB0749497F064A127F891AC8B206E0BC
:101750000349497F1E31024A127F891AC8B2704775
:101760000E10002010B50E4804780E480068403076
:101770000C4908600A48005DAA2805D13D2C03DC0D
:101780000748FFF7AFFF10BD00BFBFF34F8F0648FC
:101790000649C860BFF34F8F00BF00BFFEE70000DF
:1017A0006C100020340000200400FA0500ED00E079
:1017B000FFF7B0FCFFF756FDFFF710FA00203C4999
:1017C0000871401E488008800879FEF7B1FEFFF7D7
:1017D000D7F96CE0322137480068FEF789FC002910
:1017E00001D1FFF723F934480078002808D0002001
:1017F000FEF70EFE0020304908700120FEF708FEBB
:101800002E48007F002818DD0020FEF701FE00F0C2
:1018100091F8C4B242226243294B9A5CD11C422205
:101820006243D018FFF75CFD2448007F401E234927
:1018300008770120FEF7ECFD00BF2248007F00285A
:1018400034DDFFF777FFC4B2422060431E49085CD5
:10185000092818D142206043401840785A2812D1F4
:10186000422060434018007A5B280CD1422161433A
:10187000154A8918481CFFF7DBF91248007F401E03
:101880001049087713E0422262430F4B9A5CD11C47
:1018900042226243D018FEF725FE012805D10948EF
:1018A000007F401E0749087701E000BF00BF91E7B5
:1018B00014000020240000202A00002050080020EE
:1018C000B00000200E1000206E08002070B5044605
:1018D00000252078162803D020781A2800D070BD63
:1018E0006078412802D1A078C82800D0F7E7207C92
:1018F000E42802D1607CE52800D0F0E7A07CF02845
:1019000003D0A07CF12800D0E9E7002507E02046BD
:101910000F30401B007806494855681CC5B2082D99
:10192000F5DB08210248FFF7DBFC00BFD7E700002A
:101930002B00002000200A49497F094A127F91426A
:1019400006DB0749497F064A127F891AC8B206E0BA
:101950000349497F1E31024A127F891AC8B2704773
:10196000500800203EB504460020009001900290EF
:101970000B216846017008222146401CFEF7CEFB71
:10198000AA21684641720C21FFF7AAFC3EBD000067
:10199000002804D17D21C900064A118008E00128F1
:1019A00003D10021044A117002E00021014A118094
:1019B00070470000280000203300002010000000C5
:1019C00020000000400000000100000000040000B2
:1019D00080000000F419000800000020B0000000A2
:1019E0003A150008A41A0008B000002000140000F6
:1019F0004A150008006CDC02000000000000000036
:101A000001020304060708090000000000000000AE
:101A100000000000000000000000000000000000C6
:101A200000000000000000000000000000000000B6
:101A30000102030401020304060708092100210A28
:101A400005DA0000200A2400000001000000000068
:101A5000D41809700080000845CCC020061FFFFF85
:101A600000F88711700101020F40C02A450081D3A0
:101A70000400210A22003F000F150000370B0084EC
:101A800000000000000000000000004800000048C6
:101A90000000004800000048000400480000004822
:041AA00000FF000043
:04000005080000C12E
:00000001FF
