:020000040800F2
:1000000098090020D5000008D50A0008070A000852
:1000100000000000000000000000000000000000E0
:10002000000000000000000000000000B10D00080A
:100030000000000000000000C10B0008FF0E0008D7
:10004000E7000008E7000008E7000008E7000008F4
:10005000E7000008E7000008E70000083D08000886
:10006000E7000008E7000008E7000008E7000008D4
:10007000E7000008E7000008E7000008E7000008C4
:10008000E7000008E700000800000000E7000008A3
:10009000E7000008E7000008E7000008E7000008A4
:1000A000E7000008E7000008E7000008E700000894
:1000B0003510000800000000E70000080000000004
:1000C0000348854600F062F8004800479114000894
:1000D000980900200448804704480047FEE7FEE7EF
:1000E000FEE7FEE7FEE7FEE7B90F0008C1000008E3
:1000F00030B50B46014600202022012409E00D46C0
:10010000D5409D4205D31D469540491B2546954047
:1001100040191546521E002DF1DC30BD70B500248B
:100120002546002801DA01244042002901DA012590
:100130004942FFF7DDFFAC4200D04042002C00D026
:10014000494270BD03460B439B0703D009E008C931
:10015000121F08C0042AFAD203E00B78491C03706E
:10016000401C521EF9D27047D2B201E00270401C0E
:10017000491EFBD270470022F6E710B513460A4627
:1001800004461946FFF7F0FF204610BD064C012536
:10019000064E05E02046E36807C82B439847103415
:1001A000B442F7D3FFF790FF8C170008AC17000894
:1001B000F0B585B04448C08B444A104301460F2037
:1001C00000F07EFA00BF0F2000F03EF904463F48E1
:1001D0000442F8D10E2000F037F904462007000F42
:1001E0000390E512E006C60F002E01D000F092FB4E
:1001F0000A2000F015F904462007000F0190E006E0
:10020000C00F00900098002801D000F083FB13215C
:1002100089020C2000F054FA1F21C902022000F0CC
:1002200027FA2B480088072252031043014600207A
:1002300000F01EFA2448C08B01221203104301462D
:100240000F2000F03DFA00BF0F2000F0FDF804463B
:10025000012000030442F7D11B48018B0C2000F061
:100260002FFA1B488188022000F002FA1848018802
:10027000002000F0FDF914484188012000F020FA28
:1002800011488188022000F01BFA0F48C08B04221D
:10029000104301460F2000F013FA00BF0F2000F0BA
:1002A000D3F8044604200442F8D10E2000F0CCF824
:1002B00004462006400F0290E005C70F002F01D032
:1002C00000F028FB05B0F0BD281700080208000068
:1002D0004817000870B5002407E060001B4A115A57
:1002E000204600F0EDF9601CC4B2082CF5DB0A24AE
:1002F00007E06000154A115A204600F0E1F9601C41
:10030000C4B2102CF5DB002407E06000104A115A3B
:10031000204600F0ADF9601CC4B2102CF5DB0024BF
:1003200007E060000B4A115A204600F0B5F9601C46
:10033000C4B2052CF5DB002000F086F80546034822
:100340000188A94201D000F0E5FA70BD2817000825
:1003500048170008681700080EB50121084600F08C
:1003600051FC0A21012000F025FD012080020190AE
:100370000021684601720C2141720121817201A89D
:1003800000F084FA072168460170012141708170F4
:1003900000F0A2FB0120800200F05EFA0EBD00001A
:1003A00010B50446A200044B9A5A91B2A200034B26
:1003B000985800F024FB10BD741700083800002086
:1003C00010B50446A200044B9A5A91B2A200034B06
:1003D000985800F00BFB10BD74170008380000207F
:1003E00010B50446A200044B9A5A91B2A200034BE6
:1003F000985800F006FB10BD741700083800002064
:1004000038B504460120800200F026FA072168462C
:10041000017001214170847000F05EFB38BD000066
:1004200070B50446254628030649C989084385B2A4
:100430002946072000F044F9082000F005F8054699
:10044000284670BD2817000870B504460020FFF745
:10045000A7FF80200443002515E08020044203D03C
:100460000220FFF7BDFF02E00220FFF799FF00BF67
:100470000120FFF7B5FF00BF0120FFF791FF6006E5
:10048000040E681CC5B2082DE7DB00BF0220FFF791
:10049000A7FF002000F0AEFC002513E00220FFF7CC
:1004A0008FFF002803D07000401C86B201E070046A
:1004B000060C0120FFF794FF00BF0120FFF770FF3B
:1004C000681CC5B2102DE9DB0020FFF789FF012071
:1004D00000F090FC304670BD70B505460E46002415
:1004E0000020FFF78DFF142000F0E6FC314628467F
:1004F00000F025F90020FFF783FF1A2000F0DCFC54
:10050000012000F077F900E0641C0420FFF758FF99
:10051000002802D009488442F6DB0848844201DB07
:10052000002070BD182000F0C7FC0120FFF768FF15
:10053000012000F05FF90120F3E70000204E0000E9
:10054000F8B50446284E3B2C01DD0120F8BD2046BD
:10055000E10F091849104900611A04D00520000272
:100560006043861903E0052000026043361A00202C
:10057000FFF746FF142000F09FFC012000F054F923
:100580001A484088FF2212021040320C10430146E4
:10059000012000F095F8B1B2022000F091F8134864
:1005A000C08B0422104301460F2000F089F800BFE1
:1005B0000F20FFF749FF054604200542F8D10E2021
:1005C000FFF742FF05462806400F0090E805C70FD9
:1005D000182000F071FC0120FFF712FF002F01D05E
:1005E0000120B3E70020B1E705D421002817000857
:1005F000F8B50020FFF7D4FE202000F0DDF800243D
:1006000005E01A49085D00F0D7F8601CC4B2042C5C
:10061000F7DB0020FFF7E4FE0020FFF7C1FEA0207B
:1006200000F0CAF800F0A4F8054600F0A1F806466C
:1006300000F09EF8074600F09BF800900020FFF7BE
:10064000CFFE0A480078A8420CD108484078B04252
:1006500008D106488078B84204D10448C17800988F
:10066000814201D000F056F9F8BD000020170008C3
:1006700070B504460E46254628030649C989084335
:1006800085B22946072000F01BF83146082000F00B
:1006900017F870BD2817000870B504460E462546A9
:1006A000E8010649C989084385B22946072000F0B8
:1006B00007F83146092000F003F870BD281700083C
:1006C00070B504460E460020FFF76AFE00BF002505
:1006D00014E08020044203D00220FFF781FE02E0F4
:1006E0000220FFF75DFE0120FFF77AFE00BF012028
:1006F000FFF756FE6006040E681CC5B2082DE8DB45
:1007000000BF002515E00120C003064203D00220EF
:10071000FFF766FE02E00220FFF742FE0120FFF72E
:100720005FFE00BF0120FFF73BFE7004060C681C53
:10073000C5B2102DE7DB0020FFF752FE70BD70B58B
:1007400004460D46602000F0B7FB0020FFF728FEAE
:10075000402000F031F803E02078641C00F02CF811
:100760002846691ECDB20028F6D1FFF739FE70BDCC
:1007700070B50220FFF734FE002000F03BFB00259F
:1007800013E00220FFF71CFE002803D06000401C8D
:10079000C4B201E06006040E0120FFF721FE00BF95
:1007A0000120FFF7FDFD681CC5B2082DE9DB012023
:1007B00000F020FB204670BD70B50446002515E012
:1007C0008020044203D00220FFF70AFE02E002204C
:1007D000FFF7E6FD00BF0120FFF702FE00BF01208A
:1007E000FFF7DEFD6006040E681CC5B2082DE7DBCE
:1007F00070BD000070B5044609490A480068FFF75B
:1008000077FCC6B205E0002501E0681CC5B2B54220
:10081000FBDB2046611ECCB20028F4D170BD000085
:1008200040420F00000000200349086000BF024959
:1008300009680029FBD170471C00002010B5012079
:10084000800200F00FF8002805D000F09BFD012089
:10085000800200F001F810BD0149486170470000B6
:1008600000040140014600200022074B1B680B409A
:100870001A46054B5B690B4203D0002A01D00120C8
:1008800000E00020704700000004014000212049E2
:100890008279002A35D00A46126803689A430B46CB
:1008A0001A600A46526803689A430B465A600279F6
:1008B00051180A6803681A430A60154A9268036867
:1008C0009A43134B9A601A46D26803689A43104BB6
:1008D000DA604279102A0CD11A46926803681A43EA
:1008E0000B4B9A601A46D26803681A43084BDA60C9
:1008F0000DE00749427951180A6803681A430A60F3
:1009000005E0027951180A6803689A430A60704743
:100910000004014000BFFEE7F0B50A4600210023B5
:10092000002400BF3DE001258D402B4615681D4089
:100930002C469C4234D11579012D02D01579022D17
:1009400016D185684F000326BE40B54385605579B2
:100950004E00B540866835438560858801268E4007
:10096000B5438580858896798E40B6B235438580BB
:1009700005684F000326BE40B543056015794E005B
:10098000B540066835430560C5684F000326BE4084
:10099000B543C560D5794E00B540C6683543C560DE
:1009A000491C1029BFD3F0BDF0B5002300244D072A
:1009B000EE0E1546B5402B46CD10AE00054620354F
:1009C000AD594E07F70E0F26BE40B543CE10B60008
:1009D00007462037BD51CD10AE003D46AD591D43F1
:1009E0002C46CD10AD003E467451F0BD02460020AD
:1009F000138A0B4201D0012000E0002070470185DE
:100A000070478161704700BFFEE710B500F088FCB9
:100A10000020FFF7E5FC0120FFF7C2FC702000F08A
:100A20004BFA0A20FFF700FFFFF754FC0A20FFF7FC
:100A3000FBFEFFF7DDFD142000F03EFAFFF7B8FBE8
:100A4000182000F039FA0120FFF7D4FEFFF784FCEC
:100A500010BD0000FEB505460020009001900290F8
:100A600000266C465A2020705B20E07168780028D0
:100A70002CD1687929790002084315498870000A49
:100A8000C870E878A9780002084311490870000A84
:100A90004870A8790871772060704878097800025A
:100AA0000843A070000AE07009480079A071084965
:100AB000C8788978000208432071000A60710449EF
:100AC0000879FFF73DFD204600F0AEFDFEBD0000B9
:100AD000140000207047000000218278002A27D0EF
:100AE000184A03231B02D21803789B109B00D1588D
:100AF00002789207D30EFF229A400B469343194681
:100B000042789207120E03789B07DB0E9A4011433E
:100B10000C4A03231B02D21803789B109B00D15070
:100B20000278D306DB0E01229A40064B1A6007E0DA
:100B30000278D306DB0E01229A40024B80331A6002
:100B40007047000000E100E010B5002819DA1A4AE9
:100B500003071B0F083B9B089B00D2588307DC0E42
:100B6000FF23A3409A438B071B0E8407E40EA34088
:100B70001A43114B0407240F083CA408A4001A517F
:100B800018E00E4A03231B02D21883089B00D25898
:100B90008307DC0EFF23A3409A438B071B0E8407B9
:100BA000E40EA3401A43054B032424021B198408B6
:100BB000A4001A5110BD00001CED00E000E100E0AF
:100BC00070470000002905D0054A52690243044BD2
:100BD0005A6104E0024A52698243014B5A617047EC
:100BE00000100240002905D0054AD2690243044B97
:100BF000DA6104E0024AD2698243014BDA6170474C
:100C000000100240002905D0054A92690243044BB6
:100C10009A6104E0024A92698243014B9A617047EB
:100C200000100240FEB50446002500260020019079
:100C300000900027504840680C2108400546002DD0
:100C400004D0042D05D0082D28D105E04B482060A4
:100C500027E04A48206024E0474840680F21890483
:100C600008400646444840680121090408400190B4
:100C7000B00C861C0198002803D1414870432060C5
:100C80000BE03D48C06A0007000F401C00903B4845
:100C90000099FFF72DFA7043206002E0374820608A
:100CA00000BF00BF34484068F021084005462D09C8
:100CB0003448475D2068F84060602F48406807214D
:100CC0000902084005462D0A2E48475D6068F84035
:100CD000A0602948006BFF2101310840884202D002
:100CE0002948E0600DE0244840680121890308405C
:100CF000884203D0A0684008E06002E0A068800855
:100D0000E0601D48006B40210840402802D01F4889
:100D1000206102E00120C00320611748006B102110
:100D20000840102802D01548606101E02068606129
:100D30001148006B8007800F02D1A068A06119E004
:100D40000D48006B8007800F012802D12068A06148
:100D500010E00948006B8007800F022802D1800351
:100D6000A06107E00448006B8007800F032801D1D1
:100D70000248A061FEBD00000010024000127A008F
:100D800000093D0027000020809FD5001280000050
:100D900070B50B20FFF758FB04463021614308462D
:100DA0006421FFF7BBF99621081AC5B2284670BD29
:100DB0007047000030B500228B071C0F0F23A340A3
:100DC0001A460B4B8C10A4001B599343084C8D10F2
:100DD000AD00635123468C10A4001B598C07250FCE
:100DE0000446AC402343024C8D10AD00635130BD2E
:100DF000080001401CB50446012C0ED14020009093
:100E00000121684601710021817103214171694608
:100E10000920C006FFF780FD0BE040200090002174
:100E2000684601710121C17169460920C006FFF7BA
:100E300073FD1CBD0CB500200190009011201C49D1
:100E400008601C4840681B49486008464068486084
:100E5000084640683F21090488431649486008460F
:100E600040680521C90408431249486008460068E3
:100E70000121090608430F49086000BF0D480068BA
:100E8000012149060842F9D00A48406880088000DC
:100E900008494860084640680221084305494860FF
:100EA00000BF044840680C2108400828F9D10CBD57
:100EB000002002400010024070B504460020FFF7F9
:100EC0006FFA002515E08020044203D00220FFF7CE
:100ED00087FA02E00220FFF763FA00BF0120FFF764
:100EE0007FFA00BF0120FFF75BFA6006040E681C62
:100EF000C5B2082DE7DB0020FFF772FA70BD10B510
:100F000000F028F810BD000010B57D21C9000E4882
:100F10000068FFF7EDF80446601E0C49884201D9CD
:100F200001200CE0601E0A4948610321081FFFF7F9
:100F30000BFE002006498861072008610020002878
:100F400001D000BFFEE710BD00000020FFFFFF0042
:100F500000E000E010B514480068002804D01248F2
:100F60000068401E1049086010480068401C0F4986
:100F700008600F490D480068FFF7BAF8002901D151
:100F800000F02CFB0B48008800280BDD0948008886
:100F9000401E0849088008460088002802D1012028
:100FA00000F058FB10BD00001C00002020000020B5
:100FB000C0D401002400002010B51B4800680121A6
:100FC000084319490860084640681849084016490E
:100FD00048600846006816490840134908600846FA
:100FE00000680121890488430F4908600846406869
:100FF0003F21090488430C4948600846C06A00093B
:101000000001C8620846006BFF215431884306493D
:1010100008630846406B4008400048630020886031
:10102000FFF708FF10BD0000001002400CB8FFF8E9
:10103000FFFFF6FE10B50A490A4800F099F80028AB
:101040000DD0084800F054F9044600F01FFB2021A1
:10105000044800F06DF80249024800F06BF810BD3A
:10106000050105000044004000B589B00121480495
:10107000FFF7A8FD01214804FFF7B4FD012202217A
:101080000920C006FFF790FC012203210920C006B9
:10109000FFF78AFC0C200790022108A801700321A9
:1010A0004170002181700121C17007A90920C0068B
:1010B000FFF732FCE12040020190002002900390F3
:1010C000049006900C20059001A90B4800F098F8B8
:1010D00001220A49084800F072F80121064800F090
:1010E00032F81C2168460170022141700121817093
:1010F000FFF7F2FC09B000BD004400400501050007
:1011000070B505460E46002400BF0BE0295D074878
:1011100000F0F3F800BF4021044800F020F8002858
:10112000F9D0641CB442F1DB70BD00000044004003
:101130000162704710B5002300220B0C01249C4073
:101140002246026210BD002904D0026801231A431E
:10115000026003E0026852085200026070470246D3
:101160000020D3690B4201D0012000E0002070472D
:1011700070B502460B4600240021002500201E0405
:10118000350ED9B201268E403146012D02D11668A6
:10119000314006E0022D02D15668314001E09668E8
:1011A00031401C0C0126A6403446D6693440002943
:1011B00003D0002C01D0012000E0002070BDF8B564
:1011C00003460024002600960025002018460E0441
:1011D000340ECEB200960127009EB7403D46022C49
:1011E00001D1001D02E0032C00D10830002A03D0F9
:1011F00006682E43066002E00668AE430660F8BD4E
:10120000F0B589B005460E4600240020089000BFC6
:1012100000BF28684008400028606C68032109036B
:10122000204688430446B06804436C602C682E480E
:101230000440F168706808433169084304432C6036
:10124000AC680321090220468843044670690443C0
:10125000AC606846FFF7E6FC2448854202D1069858
:10126000089001E00298089028680121C90308420B
:1012700009D0326851001923089A5A431046FEF7E4
:1012800037FF074608E0326891001923089A5A434D
:101290001046FEF72DFF074664213846FEF728FF6B
:1012A0000401200964214843381A07902868012165
:1012B000C90308420AD00799C900084632306421A0
:1012C000FEF716FF4007400F044309E007990901A4
:1012D000084632306421FEF70BFF0007000F04437D
:1012E000AC8109B0F0BD0000F3E9FFFF0038014018
:1012F0000146888CC005C00D7047CA05D20D028515
:10130000704702E008C8121F08C1002AFAD17047CE
:101310007047002001E001C1121F002AFBD1704775
:101320001CB501218804FFF74DFC01214804FFF79B
:1013300049FCF02000900121684601710021817173
:101340000321417169460920C006FFF7E5FA012033
:1013500000900021684601710221C171694609208F
:10136000C006FFF7D9FA01208002009000216846EC
:1013700001710221C17169460148FFF7CDFA1CBD18
:1013800000040048F0B591B0002444216846FEF7FF
:10139000F2FE012600270F20FFF756F871020840E1
:1013A000C6B2FFF7F5FC0746E020FFF785FD0020F9
:1013B000FEF7F6FFC020FFF7FFF9FFF7D9F9044663
:1013C000002C15DD3F2C13DC002E11D16846047073
:1013D000002506E0FFF7CCF96A46691C5054681CEA
:1013E000C5B2A542F6DB6946601C0F54A01C0E5422
:1013F000002E07D168460078801CC1B26846017093
:1014000000F0AEF80020FEF7EBFF1820FFF754FDC8
:1014100011B0F0BD10B504460F4800780A2800D17D
:1014200010BD21784A1C0C49497889010B4BC8181A
:101430002146FEF787FE08484078401C0649487060
:1014400008460078401C0870084640780A2801D1F8
:101450000020487000BFE3E756050020D6020020B8
:1014600000200A494978094A1278914206DB074967
:101470004978064A1278891AC8B206E003494978C1
:101480000A31024A1278891AC8B2704756050020FC
:10149000FFF73AFDFFF7E8FDFFF7B7FA00202B4909
:1014A0000871401E4880088000F098F827490879A4
:1014B000FFF746F848E026480078002810DD00F0E5
:1014C00075F8C4B2A201234B9A5C511CA201D0183A
:1014D000FFF716FE1E480078401E1D49087000BF29
:1014E0001D48007800282EDDFFF7BAFFC4B2A00126
:1014F0001A49085C092815D1A001401840785A28DB
:1015000010D1A0014018007A5B280BD1A101134A29
:101510008918481CFFF79EFA0F480078401E0E49B4
:10152000087011E0A2010D4B9A5C511CA201D01869
:10153000FEF7D2FF012805D107480078401E064972
:10154000087001E000BF00BFB5E7000014000020F4
:10155000D40200205400002056050020D6020020AE
:1015600010B504460F4800780A2800D110BD217834
:101570008A1C0C49497889010B4BC8182146FEF793
:10158000E1FD08484078401C06494870084600784C
:10159000401C0870084640780A2801D10020487095
:1015A00000BFE3E7D40200205400002000200A49D5
:1015B0004978094A1278914206DB07494978064A78
:1015C0001278891AC8B206E0034949780A31024AFA
:1015D0001278891AC8B27047D40200203EB50020A4
:1015E0000090019002906C465A2020705520607047
:1015F0000C494878097800020843A070000AE0709E
:1016000008480079A0710749C87889780002084322
:101610002071000A60715B20E071204600F004F840
:101620003EBD0000140000203EB50446002000909E
:10163000019002900B216846017008222146401C4F
:10164000FEF780FDAA21684641720C21FFF758FD84
:101650003EBD000010B50446002C03D132200849DD
:1016600008800CE0012C07D140210648FEF783FDDD
:1016700000200549087002E000200149088010BDE3
:1016800024000020580500202600002010B5044644
:101690002148007800280DD13F2C00DD10BD1F48E7
:1016A00004701D480078401C1B4908700020FFF79B
:1016B000D1FFF3E7AA2C19D10220FFF7CBFF17487F
:1016C00015490978445414480078401C12490870A0
:1016D0001248017810480078401E814202D10F481C
:1016E000FFF798FE0120FFF7B5FFD7E70A4800781B
:1016F000402803D10120FFF7ADFFCFE70220FFF71D
:10170000A9FF064804490978445403480078401C5E
:101710000149087000BFC1E72600002058050020DD
:101720003475C58CC73345E72100210A05DA00006E
:10173000200A24000000010000000000D4180970F5
:10174000004400084548C02006170000000087112B
:10175000700102036F40C00A450081D20400210AD3
:1017600022003F000F150000370B0084000000002E
:1017700000000000100000002000000040000000F9
:10178000010000000004000080000000AC17000809
:101790000000002054000000021300080018000898
:1017A000540000204409000012130008006CDC0201
:1017B0000000000000000000010203040607080901
:1017C0000000000000000000000000000000000019
:1017D00000000000000000010203040102030406EF
:1017E0000708090000000048000000480000004809
:1017F000000000480004004800000048000000000D
:04000005080000C12E
:00000001FF
