:020000040800F2
:10000000A0050020D5000008CF0900081F0900083E
:1000100000000000000000000000000000000000E0
:100020000000000000000000000000007D0C00083F
:100030000000000000000000B90A00080B0E0008D4
:10004000E7000008E7000008E7000008E7000008F4
:10005000E7000008E7000008E70000088D07000837
:10006000E7000008E7000008E7000008E7000008D4
:10007000E7000008E7000008E7000008E7000008C4
:10008000E7000008E700000800000000E7000008A3
:10009000E7000008E7000008E7000008E7000008A4
:1000A000E7000008E7000008E7000008E700000894
:1000B0002110000800000000E70000080000000018
:1000C0000348854600F04EF80048004755160008E2
:1000D000A00500200448804704480047FEE7FEE7EB
:1000E000FEE7FEE7FEE7FEE7B10E0008C1000008EC
:1000F00030B50B46014600202022012409E00D46C0
:10010000D5409D4205D31D469540491B2546954047
:1001100040191546521E002DF1DC30BD03460B433D
:100120009B0703D009E008C9121F08C0042AFAD2AD
:1001300003E00B78491C0370401C521EF9D2704733
:10014000D2B201E00270401C491EFBD2704700226F
:10015000F6E710B513460A4604461946FFF7F0FFC6
:10016000204610BD064C0125064E05E02046E368FA
:1001700007C82B4398471034B442F7D3FFF7A4FFC6
:100180000C1900082C190008F0B585B04448C08B44
:10019000444A104301460F2000F048FA00BF0F20E8
:1001A00000F026F904463F480442F8D10E2000F042
:1001B0001FF904462007000F0390E512E006C60F62
:1001C000002E01D000F00AFB0A2000F0FDF80446E2
:1001D0002007000F0190E006C00F00900098002853
:1001E00001D000F0FBFA132189020C2000F01EFA66
:1001F0001F21C902022000F0F1F92B4800880722D4
:10020000520310430146002000F0E8F92448C08B57
:1002100001221203104301460F2000F007FA00BF2D
:100220000F2000F0E5F80446012000030442F7D156
:100230001B48018B0C2000F0F9F91B488188022033
:1002400000F0CCF918480188002000F0C7F91448E4
:100250004188012000F0EAF911488188022000F06D
:10026000E5F90F48C08B0422104301460F2000F02F
:10027000DDF900BF0F2000F0BBF804460420044263
:10028000F8D10E2000F0B4F804462006400F02908A
:10029000E005C70F002F01D000F0A0FA05B0F0BDB7
:1002A00040000020020800006000002070B500241B
:1002B00007E060001B4A115A204600F0B7F9601CA5
:1002C000C4B2082CF5DB0A2407E06000154A115A75
:1002D000204600F0ABF9601CC4B2102CF5DB002402
:1002E00007E06000104A115A204600F077F9601CC0
:1002F000C4B2102CF5DB002407E060000B4A115A51
:10030000204600F07FF9601CC4B2052CF5DB00200C
:1003100000F06EF8054603480188A94201D000F0BC
:100320005DFA70BD400000206000002080000020C9
:1003300070B504460D46142000F044FD002000F086
:1003400053FA2946204600F0B0F970BD10B50446B6
:10035000A200044B9A5A91B2A200034B985800F0A5
:10036000DAFA10BDF41800088C00002010B504461D
:10037000A200044B9A5A91B2A200034B985800F085
:10038000C1FA10BDF41800088C00002010B5044616
:10039000A200044B9A5A91B2A200034B985800F065
:1003A000BCFA10BDF41800088C00002038B50446D3
:1003B000012000F0F9F90521684601700121417022
:1003C000847000F005FB38BD70B50446254628034F
:1003D0000649C989084385B22946072000F026F955
:1003E000082000F005F80546284670BD40000020B2
:1003F00070B504460020FFF7A9FF802004430025C4
:1004000015E08020044203D00220FFF7BFFF02E086
:100410000220FFF79BFF00BF0120FFF7B7FF00BFDF
:100420000120FFF793FF6006040E681CC5B2082D7B
:10043000E7DB00BF0220FFF7A9FF002000F038FC37
:10044000002513E00220FFF791FF002803D0700081
:10045000401C86B201E07004060C0120FFF796FFF5
:1004600000BF0120FFF772FF681CC5B2102DE9DB49
:100470000020FFF78BFF012000F01AFC304670BD12
:1004800070B504460D461A2000F09CFC012000F0D7
:10049000ABF9002000F0A8F9012070BD70B5054649
:1004A000002D01D1254C09E0012D01D1244C05E09E
:1004B000022D01D1234C01E0012070BD0020FFF787
:1004C00075FF142000F07EFC002000F08DF91E481E
:1004D000C0884604760C3146032000F0A7F81A487D
:1004E00080890605360D3146062000F09FF8164833
:1004F00000891649084006463146042000F096F867
:1005000011484088FF21090208400646200C30436C
:100510000146012000F08AF8A1B2022000F086F81E
:100520000021022000F06EF8052000F025F9002FD0
:1005300001D00120C1E70020BFE700006BE62100E9
:1005400005F2210005D4210040000020FFEF00004B
:10055000FEB520A103C9029101900020FFF7F6FE2D
:10056000202000F0EBF8002405E001A9085D00F070
:10057000E5F8601CC4B2042CF7DB0020FFF706FF8F
:100580000020FFF7E3FEA02000F0D8F800F0B2F85A
:10059000054600F0AFF8064600F0ACF8074600F05C
:1005A000A9F800900020FFF7F1FE68460079A84204
:1005B0000CD168464079B04208D168468079B8428B
:1005C00004D16846C1790098814201D000F006F953
:1005D000FEBD00003475C58CC73345E770B50446D1
:1005E0000E46254628030649C989084385B229468F
:1005F000072000F01BF83146082000F017F870BD06
:100600004000002070B504460E462546E801064924
:10061000C989084385B22946072000F007F831460A
:10062000092000F003F870BD4000002070B50446BA
:100630000E460020FFF78AFE00BF002514E0802050
:10064000044203D00220FFF7A1FE02E00220FFF7E0
:100650007DFE0120FFF79AFE00BF0120FFF776FE26
:100660006006040E681CC5B2082DE8DB00BF00253B
:1006700015E00120C003064203D00220FFF786FEEA
:1006800002E00220FFF762FE0120FFF77FFE00BFBD
:100690000120FFF75BFE7004060C681CC5B2102D2C
:1006A000E7DB0020FFF772FE70BD70B504460D4613
:1006B0002946204600F0BAFE86B2602000F082FB98
:1006C0000020FFF743FE402000F038F803E02078D8
:1006D000641C00F033F82846691ECDB20028F6D11C
:1006E000F0B200F02BF8301200F028F80020FFF7ED
:1006F0004DFE70BD70B50220FFF748FE002000F0EF
:10070000D7FA002513E00220FFF730FE002803D0BF
:100710006000401CC4B201E06006040E0120FFF737
:1007200035FE00BF0120FFF711FE681CC5B2082D81
:10073000E9DB012000F0BCFA204670BD70B504462C
:10074000002515E08020044203D00220FFF71EFEA2
:1007500002E00220FFF7FAFD00BF0120FFF716FEBE
:1007600000BF0120FFF7F2FD6006040E681CC5B251
:10077000082DE7DB70BD00000349086000BF024997
:1007800009680029FBD170471400002010B5012032
:10079000800200F00FF8002805D000F0E1FD0120F4
:1007A000800200F001F810BD014948617047000067
:1007B00000040140014600200022074B1B680B404B
:1007C0001A46054B5B690B4203D0002A01D0012079
:1007D00000E00020704700000004014000BFFEE779
:1007E00010B500F0BBF810BD70B50546002400261A
:1007F000002D09D100E0641C0420FFF7B7FD00289C
:1008000002D00A488442F6D3012D09D100E0641CCD
:100810000420FFF7ABFD002802D104488442F6D340
:100820000248844200D20126304670BD204E0000AE
:10083000F0B50A4600210023002400BF3DE0012559
:100840008D402B4615681D402C469C4234D11579AD
:10085000012D02D01579022D16D185684F0003268F
:10086000BE40B543856055794E00B5408668354336
:100870008560858801268E40B54385808588967978
:100880008E40B6B23543858005684F000326BE40D2
:10089000B543056015794E00B540066835430560DF
:1008A000C5684F000326BE40B543C560D5794E00EC
:1008B000B540C6683543C560491C1029BFD3F0BD9B
:1008C000F0B5002300244D07EE0E1546B5402B462B
:1008D000CD10AE0005462035AD594E07F70E0F2658
:1008E000BE40B543CE10B60007462037BD51CD10EF
:1008F000AE003D46AD591D432C46CD10AD003E46E1
:100900007451F0BD02460020138A0B4201D0012031
:1009100000E000207047018570478161704700BF8B
:10092000FEE700000148024908607047CCCC000097
:100930000030004010B5074800F024F8062000F011
:1009400015F8054800F018F800F008F8FFF7EAFF7E
:1009500010BD0000555500000D030000014802497C
:1009600008607047AAAA00000030004001494860B2
:100970007047000000300040014988607047000067
:10098000003000400149086070470000003000401E
:1009900010B500F0B7FC0020FFF7F8FC0120FFF7CE
:1009A000D5FC702000F00EFA0A20FFF7E5FEFFF7F5
:1009B0007DFC0A20FFF7E0FEFFF7CAFD0120FFF7EC
:1009C000DBFE142000F0FEF9FFF7DEFB10BD7047E0
:1009D00000218278002A27D0184A03231B02D2184C
:1009E00003789B109B00D15802789207D30EFF2208
:1009F0009A400B469343194642789207120E0378A9
:100A00009B07DB0E9A4011430C4A03231B02D218AA
:100A100003789B109B00D1500278D306DB0E012295
:100A20009A40064B1A6007E00278D306DB0E0122DB
:100A30009A40024B80331A607047000000E100E0EA
:100A400010B5002819DA1A4A03071B0F083B9B0848
:100A50009B00D2588307DC0EFF23A3409A438B07E9
:100A60001B0E8407E40EA3401A43114B0407240F06
:100A7000083CA408A4001A5118E00E4A03231B02E4
:100A8000D21883089B00D2588307DC0EFF23A340B3
:100A90009A438B071B0E8407E40EA3401A43054BB1
:100AA000032424021B198408A4001A5110BD00005D
:100AB0001CED00E000E100E070470000002905D0D7
:100AC000054A52690243044B5A6104E0024A5269E2
:100AD0008243014B5A61704700100240002905D043
:100AE000054AD2690243044BDA6104E0024AD26942
:100AF0008243014BDA61704700100240FEB50446A4
:100B000000250026002001900090002750484068F2
:100B10000C2108400546002D04D0042D05D0082DD9
:100B200028D105E04B48206027E04A48206024E0B7
:100B3000474840680F2189040840064644484068F9
:100B40000121090408400190B00C861C019800287E
:100B500003D14148704320600BE03D48C06A000764
:100B6000000F401C00903B480099FFF7C1FA70430A
:100B7000206002E03748206000BF00BF3448406872
:100B8000F021084005462D093448475D2068F840AB
:100B900060602F48406807210902084005462D0A79
:100BA0002E48475D6068F840A0602948006BFF212F
:100BB00001310840884202D02948E0600DE0244815
:100BC0004068012189030840884203D0A06840089A
:100BD000E06002E0A0688008E0601D48006B4021F2
:100BE0000840402802D01F48206102E00120C003D5
:100BF00020611748006B10210840102802D01548CA
:100C0000606101E0206860611148006B8007800F1F
:100C100002D1A068A06119E00D48006B8007800F29
:100C2000012802D12068A06110E00948006B80070C
:100C3000800F022802D18003A06107E00448006B06
:100C40008007800F032801D10248A061FEBD00008B
:100C50000010024000127A0000093D002F00002021
:100C6000809FD5001280000010B501214804FFF7D5
:100C700025FF01218804FFF721FF10BD7047000008
:100C800010B50948007801280CD1084800780628DA
:100C900008DD00200449087004480078411C03481E
:100CA000FFF7EEFB10BD00002E00002060010020C9
:100CB0001CB50446012C0ED140200090012168464D
:100CC0000171002181710221417169460920C0062C
:100CD000FFF7AEFD0BE04020009000216846017157
:100CE0000121C17169460920C006FFF7A1FD1CBDA5
:100CF0000CB50020019000903048006801210904E3
:100D000008432E49086000BF2C48006801214904AF
:100D1000084000900198401C01900098002804D1E0
:100D20000521090201988842EED12448006801217A
:100D30004904084202D00120009001E00020009008
:100D40000098012838D111201D4908601B484068CF
:100D50001A494860084640684860084640683F2194
:100D60000904884315494860084640681121090470
:100D700008431249486008460068012109060843F3
:100D80000E49086000BF0D4800680121490608426D
:100D9000F9D00A4840688008800008494860084641
:100DA0004068022108430549486000BF0348406885
:100DB0000C2108400828F9D10CBD000000100240A9
:100DC0000020024070B504460020FFF7BFFA00255E
:100DD00015E08020044203D00220FFF7D7FA02E09A
:100DE0000220FFF7B3FA00BF0120FFF7CFFA00BFE0
:100DF0000120FFF7ABFA6006040E681CC5B2082D8F
:100E0000E7DB0020FFF7C2FA70BD10B500F028F84C
:100E100010BD000010B57D21C9000E480068FFF725
:100E200067F90446601E0C49884201D901200CE094
:100E3000601E0A4948610321081FFFF701FE0020D8
:100E400006498861072008610020002801D000BF02
:100E5000FEE710BD00000020FFFFFF0000E000E003
:100E600010B510480068002804D00E480068401EE5
:100E70000C4908600C480068401C0B49086000F0F1
:100E8000AFFC0A48008800280BDD08480088401E97
:100E90000649088008460088002802D1012000F099
:100EA000BBFC10BD14000020180000201E00002014
:100EB00010B51B480068012108431949086008461D
:100EC00040681849084016494860084600681649B5
:100ED00008401349086008460068012189048843D6
:100EE0000F490860084640683F21090488430C49BF
:100EF00048600846C06A00090001C8620846006BE5
:100F0000FF2154318843064908630846406B400876
:100F10004000486300208860FFF7EAFE10BD000033
:100F2000001002400CB8FFF8FFFFF6FE10B50220DB
:100F30000749087107488870000AC87006490448C4
:100F40000170090A417001460879FFF7A7FA10BD40
:100F5000290000202B5A0000012A000010B50024AF
:100F600035E061002D4809184878097800020843E7
:100F70002CD06100294834300918487809780002DB
:100F80000843002822DD61002448343009184878DD
:100F9000097800020843401E81B262001F483430C5
:100FA00010180170090A417061001C48343009189A
:100FB000487809780002084308D11848801E407814
:100FC000401C1649891E487000F0CCF9641C1A2C8C
:100FD000C7DB1248801E407800281DDD002419E080
:100FE00061000E480918487809780002084310D0BB
:100FF0000A482E30C17982790802104309D1620073
:10100000064952185178127809021143084600F037
:1010100049FB641C1A2CE3DB10BD0000F800002023
:1010200010B50A490A4800F095F800280DD0084884
:1010300000F050F9044600F003FC2021044800F0C1
:1010400069F80249024800F067F810BD0501050083
:101050000044004000B589B001214804FFF73EFD7F
:10106000012202210920C006FFF72AFC01220321E8
:101070000920C006FFF724FC0C200790022108A8D5
:1010800001704170002181700121C17007A9092000
:10109000C006FFF7CDFBE120400201900020029046
:1010A0000390049006900C20059001A90B4800F0D5
:1010B00099F801220A49094800F073F8012107480C
:1010C00000F033F81C2168460170022141700121B3
:1010D0008170FFF77DFC09B000BD000000440040B6
:1010E0000501050070B505460E46002400BF0BE063
:1010F000295D074800F0F3F800BF4021044800F0E4
:1011000020F80028F9D0641CB442F1DB70BD000067
:10111000004400400162704710B5002300220B0C10
:1011200001249C402246026210BD002904D00268BE
:1011300001231A43026003E0026852085200026071
:10114000704702460020D3690B4201D0012000E025
:101150000020704770B502460B4600240021002590
:1011600000201E04350ED9B201268E403146012DD5
:1011700002D11668314006E0022D02D15668314096
:1011800001E0966831401C0C0126A6403446D66921
:101190003440002903D0002C01D0012000E00020C1
:1011A00070BDF8B5034600240026009600250020F7
:1011B00018460E04340ECEB200960127009EB740AA
:1011C0003D46022C01D1001D02E0032C00D1083065
:1011D000002A03D006682E43066002E00668AE438C
:1011E0000660F8BDF0B589B005460E460024002023
:1011F000089000BF00BF28684008400028606C6865
:1012000003210903204688430446B06804436C6008
:101210002C682E480440F16870680843316908431F
:1012200004432C60AC68032109022046884304462D
:1012300070690443AC606846FFF760FC244885424F
:1012400002D10698089001E00298089028680121D0
:10125000C903084209D0326851001923089A5A4339
:101260001046FEF745FF074608E032689100192353
:10127000089A5A431046FEF73BFF0746642138465A
:10128000FEF736FF0401200964214843381A07900D
:1012900028680121C90308420AD00799C9000846F5
:1012A00032306421FEF724FF4007400F044309E079
:1012B00007990901084632306421FEF719FF00073B
:1012C000000F0443AC8109B0F0BD0000F3E9FFFF5B
:1012D000003801400146888CC005C00D7047CA0522
:1012E000D20D0285704702E008C8121F08C1002A0B
:1012F000FAD170477047002001E001C1121F002A97
:10130000FBD170471CB501218804FFF7D7FBF02003
:101310000090012168460171002181710221417113
:1013200069460920C006FFF783FA012000900021DA
:10133000684601710221C17169460920C006FFF7A4
:1013400077FA012080020090002168460171022195
:10135000C17169460148FFF76BFA1CBD00040048E3
:1013600070470000FEB500BF2C4800782B49497833
:10137000401AC0B201902A4CA01D00900198410073
:10138000A01D0F182548007824494978401A60713B
:1013900060794000801D207022496170090AA170A7
:1013A0002149C878897800020843E070000A20715A
:1013B00000251FE069001948801C09184878097841
:1013C0000002084315D069001448363009184878DF
:1013D0000978000208430CD069001048801C0918E5
:1013E0004878097800020843009908800098801C1A
:1013F00000906D1C1A2DDDDBAA2038702078411C6E
:10140000074800F013F886B27E703012B87020786A
:10141000C11C0348FEF78CFFFEBD0000F600002053
:1014200060010020F4ED000029000020F0B5054621
:101430000E46094F002406E0295D384600F096F874
:101440000746601C84B2B442F6DB384600F078F8F8
:1014500007463846F0BD0000FFFF0000FEB5054618
:10146000002000900190029000276C465A202070C6
:101470005B20E0716878002804D011282FD0222842
:1014800055D140E000F090F86879297900020843CE
:101490002A498870000AC870E878A97800020843D1
:1014A00026490870000A4870A87908710879FEF783
:1014B000F5FF7720607021494878097800020843D9
:1014C000A070000AE0701D480079A0711B49C8781F
:1014D0008978000208432071000A607128E000BF8B
:1014E000E978AA7809021143084600F0F7F80646A1
:1014F00066206070E878A97800020843A070000AAE
:10150000E070A67114E000BFE978AA7809021143DF
:10151000084600F029F9064688206070E878A97826
:1015200000020843A070000AE070A67100E0FEBD52
:1015300000BF204600F0CAF800BFF8E729000020ED
:1015400000210EE00123DB03184201D0012200E05C
:1015500000224304180C002A01D0034B58404B1CB6
:10156000D9B21029EEDB70472110000030B580227F
:10157000002314E00125ED03284201D0012400E0FE
:1015800000244504280C0D46154201D0451CA8B284
:10159000002C01D0034D684052105D1CEBB2082BAB
:1015A000E8DB30BD2110000010B505210748FEF72B
:1015B000CEFD6A210648FEF7CAFD40210548FEF728
:1015C000C6FD00200449087010BD0000290000205D
:1015D000F6000020600100202E00002010B5044617
:1015E0001048007C0A2800D110BD0E49497CC90072
:1015F0000C4A403A881808222146FEF78FFD094818
:10160000407C401CC1B207484174007C401CC1B200
:1016100004480174407C0A2802D100210148417429
:1016200000BFE1E7E4000020002009494A7C097C72
:101630008A4205DB06494A7C097C511AC8B206E099
:101640000349497C0A31024A127C891AC8B27047A0
:10165000E4000020FFF7DEFBFFF706FBFFF7FAFCD4
:10166000FFF796F9FFF762FCFFF764F915E0322106
:101670000A480068FEF73CFD002901D1FFF7B0F8E9
:1016800000F01EF906480078002804D0FFF766FC39
:10169000002003490870FFF7F3FAE8E7180000207C
:1016A0001C0000203EB505460020009001900290ED
:1016B0006C465A2020705B20E07199206070A57004
:1016C000280AE070204600F001F83EBD10B504463F
:1016D00008212046FFF706FD10BD000070B5054645
:1016E000204800781A2801DA002D01D1012070BDB0
:1016F00000240CE061001B48801C09184878097818
:1017000000020843A84201D10120F0E7641C1A2C12
:10171000F0DB00241FE061001248801C09184878A3
:1017200009780002084315D161000E48801C081892
:101730000570290A41700B480078401C094908705F
:10174000FF21413162000748363010180170090A44
:10175000417002E0641C1A2CDDDB00BFFFF702FEC3
:101760000020C4E7F600002070B50546002430E0F4
:1017700061001A4809184878097800020843A8420D
:1017800026D11648801E0078401E1449891E087014
:10179000610012483430091848780978000208437B
:1017A00006D10E48801E4078401E0C49891E4870A4
:1017B000002162000948101801704170620007485A
:1017C0003430101801704170FFF7CCFD002070BD5F
:1017D000641C1A2CCCDB0120F9E70000F800002083
:1017E00010B5062109480068FEF782FC002902D1E5
:1017F000012007490870322104480068FEF778FC90
:10180000002902D101200349087010BD18000020F2
:101810002E0000201C000020002803D13221064A9F
:10182000118008E0012803D10021044A117002E070
:101830000021014A118070471E000020280000206E
:1018400010B504465A2C0CD11B480078002808D14A
:10185000012019490870194804700020FFF7DCFFC7
:1018600010BD5B2C10D11448007807280CD1022041
:10187000FFF7D2FF5B201149C8710846FFF7AEFEA3
:101880000120FFF7C9FFEBE70B480078082810DAC2
:101890000948007800280CDD0020FFF7BDFF07484D
:1018A00005490978445404480078401C02490870EE
:1018B000D6E700BFD4E70000280000202000002069
:1018C00070B50B48007C002810DDFFF7ADFE044624
:1018D000E0000749403945182846FFF7BFFD044896
:1018E000007C401EC1B20248017400BF70BD000000
:1018F000E400002010000000200000004000000074
:101900000100000000040000800000002C19000805
:1019100000000020A4000000E6120008D019000812
:10192000A4000020FC040000F6120008006CDC0299
:10193000000000000000000001020304060708097F
:101940000000000000000000000000000000000097
:101950000000000000000000000000000000000186
:101960000203040102030406070809002100210AFA
:1019700005DA0000200A2400000001000000000039
:10198000D41809700080000845CCC020061FFFFF56
:1019900000F88711700101020F40C02A450081D371
:1019A0000400210A22003F000F150000370B0084BD
:1019B0000000000000000000000000480000004897
:1019C00000000048000000480004004800000048F3
:04000005080000C12E
:00000001FF
