:020000040800F2
:1000000028050020D50000087D0800083B080008EE
:1000100000000000000000000000000000000000E0
:100020000000000000000000000000004D0B000870
:100030000000000000000000690900088B0C0008A7
:10004000E7000008E7000008E7000008E7000008F4
:10005000E7000008E7000008E7000008F9060008CC
:10006000E7000008E7000008E7000008E7000008D4
:10007000E7000008E7000008E7000008E7000008C4
:10008000E7000008E700000800000000E7000008A3
:10009000E7000008E7000008E7000008E7000008A4
:1000A000E7000008E7000008E7000008E700000894
:1000B000A90D000800000000E70000080000000093
:1000C0000348854600F062F800480047A91300087D
:1000D000280500200448804704480047FEE7FEE763
:1000E000FEE7FEE7FEE7FEE70D0D0008C100000891
:1000F00030B50B46014600202022012409E00D46C0
:10010000D5409D4205D31D469540491B2546954047
:1001100040191546521E002DF1DC30BD70B500248B
:100120002546002801DA01244042002901DA012590
:100130004942FFF7DDFFAC4200D04042002C00D026
:10014000494270BD03460B439B0703D009E008C931
:10015000121F08C0042AFAD203E00B78491C03706E
:10016000401C521EF9D27047D2B201E00270401C0E
:10017000491EFBD270470022F6E710B513460A4627
:1001800004461946FFF7F0FF204610BD064C012536
:10019000064E05E02046E36807C82B439847103415
:1001A000B442F7D3FFF790FF441700086417000824
:1001B000F0B585B04448C08B444A104301460F2037
:1001C00000F0E8F900BF0F2000F016F904463F48A0
:1001D0000442F8D10E2000F00FF904462007000F6A
:1001E0000390E512E006C60F002E01D000F0ACFA35
:1001F0000A2000F0EDF804462007000F0190E00609
:10020000C00F00900098002801D000F09DFA132143
:1002100089020C2000F0BEF91F21C902022000F063
:1002200091F92B4800880722520310430146002011
:1002300000F088F92448C08B0122120310430146C4
:100240000F2000F0A7F900BF0F2000F0D5F80446FA
:10025000012000030442F7D11B48018B0C2000F061
:1002600099F91B488188022000F06CF91848018830
:10027000002000F067F914484188012000F08AF955
:1002800011488188022000F085F90F48C08B0422B4
:10029000104301460F2000F07DF900BF0F2000F051
:1002A000ABF8044604200442F8D10E2000F0A4F874
:1002B00004462006400F0290E005C70F002F01D032
:1002C00000F042FA05B0F0BDE01600080208000098
:1002D0000017000870B5002407E060001B4A115A9F
:1002E000204600F057F9601CC4B2082CF5DB0A2444
:1002F00007E06000154A115A204600F04BF9601CD7
:10030000C4B2102CF5DB002407E06000104A115A3B
:10031000204600F017F9601CC4B2102CF5DB002455
:1003200007E060000B4A115A204600F01FF9601CDC
:10033000C4B2052CF5DB002000F05EF8054603484A
:100340000188A94201D000F0FFF970BDE016000855
:10035000001700082017000870B504460D46142049
:1003600000F070FC2946204600F053F970BD0000F3
:1003700010B50446A200044B9A5A91B2A200034B56
:10038000985800F056FA10BD2C1700087C00002089
:1003900010B50446A200044B9A5A91B2A200034B36
:1003A000985800F03DFA10BD2C1700087C00002082
:1003B00010B50446A200044B9A5A91B2A200034B16
:1003C000985800F038FA10BD2C1700087C00002067
:1003D00070B50446254628030649C989084385B2F5
:1003E0002946072000F0D6F8082000F005F8054659
:1003F000284670BDE016000870B504460020FFF7DF
:10040000B7FF80200443002515E08020044203D07C
:100410000220FFF7CDFF02E00220FFF7A9FF00BF97
:100420000120FFF7C5FF00BF0120FFF7A1FF600615
:10043000040E681CC5B2082DE7DB00BF0220FFF7E1
:10044000B7FF002000F09CFB002513E00220FFF71F
:100450009FFF002803D07000401C86B201E07004AA
:10046000060C0120FFF7A4FF00BF0120FFF780FF6B
:10047000681CC5B2102DE9DB0020FFF799FF0120B1
:1004800000F07EFB304670BD70B505460E46002478
:100490001A2000F0D7FB012000F015F900E0641CE1
:1004A0000420FFF775FF002802D005488442F6DBE0
:1004B0000348844201DB002070BD0120FCE70000FE
:1004C000204E0000F8B50020FFF752FF202000F07A
:1004D000DDF8002405E01A49085D00F0D7F8601C3B
:1004E000C4B2042CF7DB0020FFF762FF0020FFF707
:1004F0003FFFA02000F0CAF800F0A4F8054600F085
:10050000A1F8064600F09EF8074600F09BF8009020
:100510000020FFF74DFF0A480078A8420CD1084898
:100520004078B04208D106488078B84204D10448E7
:10053000C1780098814201D000F006F9F8BD0000B2
:10054000D816000870B504460E462546280306490D
:10055000C989084385B22946072000F01BF83146B7
:10056000082000F017F870BDE016000870B50446CA
:100570000E462546E8010649C989084385B2294641
:10058000072000F007F83146092000F003F870BD9D
:10059000E016000870B504460E460020FFF7E8FE9E
:1005A00000BF002514E08020044203D00220FFF7A2
:1005B000FFFE02E00220FFF7DBFE0120FFF7F8FE5E
:1005C00000BF0120FFF7D4FE6006040E681CC5B210
:1005D000082DE8DB00BF002515E00120C00306421E
:1005E00003D00220FFF7E4FE02E00220FFF7C0FE86
:1005F0000120FFF7DDFE00BF0120FFF7B9FE700408
:10060000060C681CC5B2102DE7DB0020FFF7D0FEFA
:1006100070BD70B504460D46602000F013FB00204D
:10062000FFF7A6FE402000F031F803E02078641CBC
:1006300000F02CF82846691ECDB20028F6D1FFF74D
:10064000B7FE70BD70B50220FFF7B2FE002000F0CB
:1006500097FA002513E00220FFF79AFE002803D046
:100660006000401CC4B201E06006040E0120FFF7E8
:100670009FFE00BF0120FFF77BFE681CC5B2082D5E
:10068000E9DB012000F07CFA204670BD70B504461D
:10069000002515E08020044203D00220FFF788FEE9
:1006A00002E00220FFF764FE00BF0120FFF780FE9A
:1006B00000BF0120FFF75CFE6006040E681CC5B297
:1006C000082DE7DB70BD014605E0002001E0421C7B
:1006D000D0B23028FBDB0A464B1ED9B2002AF4D137
:1006E000704700000349086000BF024909680029FB
:1006F000FBD170471400002010B50120800200F0EB
:100700000FF8002805D000F0EBFC0120800200F07B
:1007100001F810BD01494861704700000004014024
:10072000014600200022074B1B680B401A46054B70
:100730005B690B4203D0002A01D0012000E00020B9
:10074000704700000004014000BFFEE7F0B50A4614
:1007500000210023002400BF3DE001258D402B46F1
:1007600015681D402C469C4234D11579012D02D0CC
:100770001579022D16D185684F000326BE40B5437A
:10078000856055794E00B54086683543856085881B
:1007900001268E40B5438580858896798E40B6B215
:1007A0003543858005684F000326BE40B54305608C
:1007B00015794E00B540066835430560C5684F00A1
:1007C0000326BE40B543C560D5794E00B540C66826
:1007D0003543C560491C1029BFD3F0BDF0B50023D7
:1007E00000244D07EE0E1546B5402B46CD10AE0049
:1007F00005462035AD594E07F70E0F26BE40B543CE
:10080000CE10B60007462037BD51CD10AE003D4694
:10081000AD591D432C46CD10AD003E467451F0BD80
:1008200002460020138A0B4201D0012000E0002084
:100830007047018570478161704700BFFEE710B5C2
:1008400000F024FC0020FFF7B3FD0120FFF790FD2E
:10085000702000F0F7F90A20FFF744FFFFF73AFD98
:100860000A20FFF73FFFFFF72DFE0120FFF73AFFB9
:10087000142000F0E7F9FFF79BFC10BD7047000063
:1008800000218278002A27D0184A03231B02D2189D
:1008900003789B109B00D15802789207D30EFF2259
:1008A0009A400B469343194642789207120E0378FA
:1008B0009B07DB0E9A4011430C4A03231B02D218FC
:1008C00003789B109B00D1500278D306DB0E0122E7
:1008D0009A40064B1A6007E00278D306DB0E01222D
:1008E0009A40024B80331A607047000000E100E03C
:1008F00010B5002819DA1A4A03071B0F083B9B089A
:100900009B00D2588307DC0EFF23A3409A438B073A
:100910001B0E8407E40EA3401A43114B0407240F57
:10092000083CA408A4001A5118E00E4A03231B0235
:10093000D21883089B00D2588307DC0EFF23A34004
:100940009A438B071B0E8407E40EA3401A43054B02
:10095000032424021B198408A4001A5110BD0000AE
:100960001CED00E000E100E070470000002905D028
:10097000054A52690243044B5A6104E0024A526933
:100980008243014B5A61704700100240002905D094
:10099000054AD2690243044BDA6104E0024AD26993
:1009A0008243014BDA61704700100240FEB50446F5
:1009B0000025002600200190009000275048406844
:1009C0000C2108400546002D04D0042D05D0082D2B
:1009D00028D105E04B48206027E04A48206024E009
:1009E000474840680F21890408400646444840684B
:1009F0000121090408400190B00C861C01980028D0
:100A000003D14148704320600BE03D48C06A0007B5
:100A1000000F401C00903B480099FFF769FB7043B2
:100A2000206002E03748206000BF00BF34484068C3
:100A3000F021084005462D093448475D2068F840FC
:100A400060602F48406807210902084005462D0ACA
:100A50002E48475D6068F840A0602948006BFF2180
:100A600001310840884202D02948E0600DE0244866
:100A70004068012189030840884203D0A0684008EB
:100A8000E06002E0A0688008E0601D48006B402143
:100A90000840402802D01F48206102E00120C00326
:100AA00020611748006B10210840102802D015481B
:100AB000606101E0206860611148006B8007800F71
:100AC00002D1A068A06119E00D48006B8007800F7B
:100AD000012802D12068A06110E00948006B80075E
:100AE000800F022802D18003A06107E00448006B58
:100AF0008007800F032801D10248A061FEBD0000DD
:100B00000010024000127A0000093D006B00002036
:100B1000809FD5001280000010B501214804FFF726
:100B200025FF01218804FFF721FF10BD70B50B20C0
:100B3000FFF762FC04463021614308466421FFF759
:100B4000EDFA9621081AC5B2284670BD704700001C
:100B500010B50948007801280CD10848007806280B
:100B600008DD00200449087004480078411C03484F
:100B7000FFF78AFC10BD00002A0000202B00002097
:100B80001CB50446012C0ED140200090012168467E
:100B90000171002181710321417169460920C0065C
:100BA000FFF7D4FD0BE04020009000216846017162
:100BB0000121C17169460920C006FFF7C7FD1CBDB0
:100BC0000CB500200190009011201C4908601C48C1
:100BD00040681B49486008464068486008464068CD
:100BE0003F210904884316494860084640680521AA
:100BF000C9040843124948600846006801210906F3
:100C000008430F49086000BF0D48006801214906EC
:100C10000842F9D00A4840688008800008494860C6
:100C200008464068022108430549486000BF04485F
:100C300040680C2108400828F9D10CBD0020024072
:100C40000010024070B504460020FFF791FB00251C
:100C500015E08020044203D00220FFF7A9FB02E048
:100C60000220FFF785FB00BF0120FFF7A1FB00BFBB
:100C70000120FFF77DFB6006040E681CC5B2082D3D
:100C8000E7DB0020FFF794FB70BD10B500F028F8FB
:100C900010BD000010B57D21C9000E480068FFF7A7
:100CA00027FA0446601E0C49884201D901200CE055
:100CB000601E0A4948610321081FFFF719FE002042
:100CC00006498861072008610020002801D000BF84
:100CD000FEE710BD00000020FFFFFF0000E000E085
:100CE00010B508480068002804D006480068401E77
:100CF0000449086004480068401C0349086000F08B
:100D00001DFC10BD140000201800002010B51B4869
:100D100000680121084319490860084640681849DD
:100D200008401649486008460068164908401349BB
:100D30000860084600680121890488430F4908605B
:100D4000084640683F21090488430C49486008462A
:100D5000C06A00090001C8620846006BFF215431D7
:100D60008843064908630846406B400840004863D2
:100D700000208860FFF724FF10BD00000010024033
:100D80000CB8FFF8FFFFF6FE022006490871C11EED
:100D900004488170090AC1700021C9430170090A21
:100DA000417070472500002010B50A490A4800F03C
:100DB00095F800280DD0084800F050F9044600F0DE
:100DC0003FFC2021044800F069F80249024800F085
:100DD00067F810BD050105000044004000B589B06A
:100DE00001214804FFF7D2FD012202210920C0069B
:100DF000FFF7F4FC012203210920C006FFF7EEFCF7
:100E00000C200790022108A80170032141700021E5
:100E100081700121C17007A90920C006FFF796FC67
:100E2000E12040020190002002900390049006907F
:100E30000C20059001A90B4800F098F801220A49FE
:100E4000084800F072F80121064800F032F81C2131
:100E5000684601700221417001218170FFF710FD89
:100E600009B000BD004400400501050070B505460D
:100E70000E46002400BF0BE0295D074800F0F3F8A0
:100E800000BF4021044800F020F80028F9D0641C7D
:100E9000B442F1DB70BD00000044004001627047C5
:100EA00010B5002300220B0C01249C402246026254
:100EB00010BD002904D0026801231A43026003E038
:100EC0000268520852000260704702460020D3694F
:100ED0000B4201D0012000E00020704770B50246AF
:100EE0000B4600240021002500201E04350ED9B237
:100EF00001268E403146012D02D11668314006E0B0
:100F0000022D02D15668314001E0966831401C0C38
:100F10000126A6403446D6693440002903D0002C6F
:100F200001D0012000E0002070BDF8B50346002488
:100F3000002600960025002018460E04340ECEB27E
:100F400000960127009EB7403D46022C01D1001DAE
:100F500002E0032C00D10830002A03D006682E439B
:100F6000066002E00668AE430660F8BDF0B589B0E1
:100F700005460E4600240020089000BF00BF2868E8
:100F80004008400028606C6803210903204688431C
:100F90000446B06804436C602C682E480440F16835
:100FA000706808433169084304432C60AC6803212E
:100FB000090220468843044670690443AC606846D1
:100FC000FFF7F4FC2448854202D10698089001E01E
:100FD0000298089028680121C903084209D03268A4
:100FE00051001923089A5A431046FFF781F8074623
:100FF00008E0326891001923089A5A431046FFF717
:1010000077F8074664213846FFF772F80401200993
:1010100064214843381A079028680121C90308420F
:101020000AD00799C900084632306421FFF760F8FA
:101030004007400F044309E0079909010846323090
:101040006421FFF755F80007000F0443AC8109B095
:10105000F0BD0000F3E9FFFF003801400146888C35
:10106000C005C00D7047CA05D20D0285704702E069
:1010700008C8121F08C1002AFAD170477047002023
:1010800001E001C1121F002AFBD170471CB5F020FE
:101090000090012168460171002181710321417195
:1010A00069460920C006FFF751FB0120009000218E
:1010B000684601710221C17169460920C006FFF727
:1010C00045FB012080020090002168460171022149
:1010D000C17169460148FFF739FB1CBD0004004897
:1010E000F0B591B00024402101A8FFF744F8012693
:1010F00000270F20FFF780F971020840C6B2FFF702
:1011000015FD0746E020FFF79DFD0020FFF730F9B1
:10111000C020FFF7BBFAFFF795FA0446002E15D161
:10112000002C01D03F2C01DD11B0F0BD68460471E8
:10113000002506E0FFF786FA01AA691C5054681CD6
:10114000C5B2A542F6DB01A9601C0F540020FFF7D1
:101150002FF9002E03D1611C01A8FFF787FE18208C
:10116000FFF770FD00BFDFE7F8B500BF2848007843
:1011700027494978401AC7B2264CA61D7900A01D00
:10118000081800902248007821494978401A607177
:1011900060794000801D20701F496170090AA170AC
:1011A0001D496170090AA1701C49C878897800023C
:1011B0000843E070000A207100251CE06900144813
:1011C000801C0918487809780002084312D0690089
:1011D0000F4820300918487809780002084309D0E0
:1011E00069000B48801C09184878097800020843F8
:1011F0003080B61C6D1C0F2DE0DBAA210098017019
:1012000004480078411C0348FFF7A6F8F8BD000029
:10121000E60000202B000020F4ED00002500002057
:10122000FEB50546002000900190029000276C4614
:101230005A2020705B20E0716878002804D01128C3
:101240002BD0222851D13CE000F058F86879297958
:101250000002084328498870000AC870E878A97815
:101260000002084324490870000A4870A8790871F0
:10127000772060704878097800020843A070000A5F
:10128000E0701D480079A0711B49C8788978000278
:1012900008432071000A607128E000BFE978AA784D
:1012A00009021143084600F0D3F806466620607034
:1012B000E878A97800020843A070000AE070A671DF
:1012C00014E000BFE978AA7809021143084600F04B
:1012D00005F9064688206070E878A978000208437E
:1012E000A070000AE070A67100E0FEBD00BF2046BD
:1012F00000F0A6F800BFF8E72500002010B5052192
:101300000748FEF738FF3E210648FEF734FF40212C
:101310000548FEF730FF00200449087010BD0000AA
:1013200025000020E60000202B0000202A000020DD
:1013300010B504461048007C0A2800D110BD0E49A3
:10134000497CC9000C4A403A881808222146FEF719
:10135000F9FE0948407C401CC1B207484174007C3A
:10136000401CC1B204480174407C0A2802D100210B
:101370000148417400BFE1E7D40000200020094982
:101380004A7C097C8A4205DB06494A7C097C511A61
:10139000C8B206E00349497C0A31024A127C891A24
:1013A000C8B27047D4000020FFF774FCFFF7B4FB0D
:1013B000FFF714FDFFF743FAFFF7E6FC00F01AF819
:1013C00003E000F06FF9FFF7C3FBFAE73EB505460F
:1013D00000200090019002906C465A2020705B2003
:1013E000E07199206070A570280AE070204600F036
:1013F00027F83EBD3EB500200090019002906C465B
:101400005A202070552060700C49487809780002F5
:101410000843A070000AE07008480079A0710749ED
:10142000C8788978000208432071000A60715B2047
:10143000E071204600F004F83EBD000025000020C9
:1014400010B5044608212046FFF710FD10BD00002E
:1014500070B50546204800780F2801DA002D01D12B
:10146000012070BD00240CE061001B48801C09189D
:101470004878097800020843A84201D10120F0E72A
:10148000641C0F2CF0DB00241FE061001248801C5C
:101490000918487809780002084315D161000E4800
:1014A000801C08180570290A41700B480078401C00
:1014B000094908707D21C9016200074820301018D1
:1014C0000170090A417002E0641C0F2CDDDB00BFD3
:1014D000FFF74AFE0020C4E7E600002070B505468D
:1014E000002424E0610014480918487809780002B3
:1014F0000843A8421AD11048801E0078401E0E49A9
:10150000891E087008464078401E4870002162001D
:101510000948101801704170620007481E30101809
:1015200001704170FFF720FE002070BD641C0F2C7D
:10153000D8DB0120F9E70000E800002010B5002406
:1015400035E061003A4809184878097800020843F4
:101550002CD0610036481E300918487809780002FE
:101560000843002822DD610031481E300918487800
:10157000097800020843401E81B262002C481E30E8
:1015800010180170090A4170610029481E300918BD
:10159000487809780002084308D12548801E407821
:1015A000401C2349891E4870FFF7DEFD641C0F2C88
:1015B000C7DB06211F480068FEF79AFD002902D10B
:1015C00001201D49087032211A480068FEF790FD7D
:1015D000002922D11648801E407800281DDD0024F5
:1015E00019E0610012480918487809780002084398
:1015F00010D00F481E30417802780802104309D1FC
:1016000062000B49521851781278090211430846BA
:10161000FFF7DCFE641C0F2CE3DB0849054800687B
:10162000FEF766FD002901D1FFF7E4FE10BD0000C2
:10163000E8000020180000202A000020307500007B
:1016400010B504465A2C05D10120144908701448DD
:10165000047010BD5B2C11D11048007807280DD103
:101660005B200F49C8710846FFF762FE08210C484D
:10167000FEF781FD002009490870EAE70748007875
:10168000082809DA064805490978445403480078CF
:10169000401C02490870DCE700BFDAE724000020A4
:1016A0001C00002070B50B48007C002810DDFFF7FF
:1016B00065FE0446E0000749403945182846FFF713
:1016C000AFFD0448007C401EC1B20248017400BF57
:1016D00070BD0000D40000203475C58CC73345E7C9
:1016E0002100210A05DA0000200A24000000010080
:1016F00000000000D4180970004400084548C020CC
:101700000617000000008711700102036F40C00A35
:10171000450081D20400210A22003F000F1500007D
:10172000370B0084000000000000000010000000E3
:101730002000000040000000010000000004000044
:1017400080000000641700080000002094000000E2
:101750006E100008F81700089400002094040000A0
:101760007E100008006CDC02000000000000000099
:101770000102030406070809000000000000000041
:101780000000000000000000000000000000003F1A
:101790000000000000000000000000000000000049
:1017A0000000000000000000000000000000000039
:1017B0000000000000000000000000000000000029
:1017C0000000000000000000000000000000000019
:1017D00000000001020304010203040607080900D7
:1017E00000000048000000480000004800000048D9
:0817F00000040048000000485D
:04000005080000C12E
:00000001FF
