:020000040800F2
:1000000048050020D500000801030008FF02000891
:1000100000000000000000000000000000000000E0
:1000200000000000000000000000000005030008C0
:10003000000000000000000003030008D9030008CE
:10004000E7000008E7000008E7000008E7000008F4
:10005000E7000008E7000008E70000086501000865
:10006000E7000008E7000008E7000008E7000008D4
:10007000E7000008E7000008E7000008E7000008C4
:10008000E7000008E700000800000000E7000008A3
:10009000E7000008E7000008E7000008E7000008A4
:1000A000E7000008E7000008E7000008E700000894
:1000B000E700000800000000E70000080000000062
:1000C0000348854600F03CF800480047FD0400085E
:1000D000480500200448804704480047FEE7FEE743
:1000E000FEE7FEE7FEE7FEE7FD030008C1000008AB
:1000F00030B50B46014600202022012409E00D46C0
:10010000D5409D4205D31D469540491B2546954047
:1001100040191546521E002DF1DC30BD03460B433D
:100120009B0703D009E008C9121F08C0042AFAD2AD
:1001300003E00B78491C0370401C521EF9D2704733
:10014000064C0125064E05E02046E36807C82B4310
:1001500098471034B442F7D3FFF7B6FF04060008FF
:1001600024060008704700000149C860704700007D
:1001700000200240F0B50B2706463F04384600F049
:10018000ADF804280FD1084C2069022528432061CE
:1001900066612069402108432061384600F09EF8DE
:1001A0002169A9432161F0BD0020024008490420D3
:1001B000CA68D20701D001207047CA68D20601D5AB
:1001C00002207047C9684907FBD50320704700002B
:1001D0000020024070B501260446B602064D07E035
:1001E0002046FFF7C7FF042801D0012070BDA419E5
:1001F000AC42F5D9002070BD0084000810B500F0B5
:100200005DF83520FFF7B0FF10BD0000F7B582B0F4
:10021000164604460025114F18E0A80003990090E7
:100220000958206800F024F8042802D0012005B005
:10023000F0BD20680399026800980858824201D0F6
:100240000220F4E72068001D20606D1CB54202D238
:100250002068B842E1D90020E9E70000FBFF000870
:100260000248016980221143016170470020024069
:10027000F8B5064600200B273F0400900D4638468F
:1002800000F02CF8042815D10B4C206901210843FB
:1002900020613580384600F021F8042806D1B61CCC
:1002A000280C00963080384600F018F8216949087B
:1002B00049002161F8BD00000020024004480169A6
:1002C000090603D5034941600349416070470000B6
:1002D0000020024023016745AB89EFCD00B50346FE
:1002E000FFF764FF02E0FFF761FF5B1E012803D008
:1002F000002B00D1052000BD002BF4D1FAE7FEE76A
:1003000070477047704700001CB5002122480191DA
:100310000091026801231B041A4302605B0005225E
:10032000120204681C400094019C641C0194009C0F
:10033000002C02D1019C9442F3D10268920328D58B
:1003400001210091154A1121116041684160416805
:10035000416041683F22120491434160416811228B
:100360001204114341600168012212061143016029
:1003700001688901FCD541688908890041604168AC
:1003800002221143416041680907890F0229FAD10D
:100390001CBD00911CBD0000001002400020024066
:1003A0000A4910B5401E884201D9012010BD0849F4
:1003B000486108480722C3691B021B0A4C042343F7
:1003C000C361002088610A6110BD0000FFFFFF00CB
:1003D00000E000E004ED00E07047000010B50648C2
:1003E0007D21C9000068FFF783FEFFF7D9FF0028D1
:1003F00000D0FEE710BD00000000002010B514483A
:1004000001680122114301604168124A11404160B4
:100410000168114A11400160016801229204914370
:10042000016041683F22120491434160C16A090999
:100430000901C162016BFF22543291430163416B98
:1004400049084900416300218160FFF75DFF10BD4D
:10045000001002400CB8FFF8FFFFF6FE02E008C8EB
:10046000121F08C1002AFAD170477047002001E02E
:1004700001C1121F002AFBD17047000070B506466B
:100480000D460648002404E0315D00F01BF8641CB2
:10049000A4B2AC42F8D300F003F870BDFFFF000037
:1004A000074A0021030403D54004000C504001E03A
:1004B0004004000C491CC9B21029F3D37047000056
:1004C0002110000070B580230B4D0022040401D5DB
:1004D000012400E000244004000C0E461E4201D01E
:1004E000401C80B2002C00D06840521C5B08D2B285
:1004F000082AEBD370BD000021100000F8B5FFF70B
:100500006DFFFF22293227492748FFF707FE264FB4
:10051000264DE1377879397900020843244E254C7D
:10052000A84216D138463F210830FFF7A7FFF979D6
:10053000BA790902114388420BD01F48016882042E
:100540003140914205D141686160006880F30888BC
:100550008847154F787B397B00020843A84210D1A9
:10056000072109031448FFF789FF81B22180F87B36
:10057000BA7B00021043884203D100F021F8012821
:100580000ED00E480168012231405207914205D138
:1005900041686160006880F3088888470020F8BDE2
:1005A000FEE7000000FC00081C000020A4A10000E1
:1005B0000000FE2F1400002000880008001400082E
:1005C000F8B50F4D04460D4E0095FFF717FE28466F
:1005D000FFF700FE0722920231466846FFF716FE3B
:1005E000FFF73EFE072109032846FFF747FF80B2C9
:1005F000844201D10020F8BD0120F8BD0088000828
:1006000000140008DC130008000000201C0000009B
:100610005C040008F81300081C0000202C050000F2
:100620006C04000800000000000000000000000052
:1006300000000000000000000000000000000000BA
:1006400000000000000000000000000000000000AA
:10065000000000000000000000000000000000009A
:10066000000000000000000000000000000000008A
:10088000000000000000000000808080C0C0C0C0E8
:10089000C0C0C08080800000000000000000000098
:1008A000000000000000000000808080000000C008
:1008B000C0800000000000000000000000000000F8
:1008C00000000080808000C0C080000000000000A8
:1008D0000000000000000080808000000000000098
:1008E0000080808000000000000000000080808008
:1008F0000000000000000080808000000000000078
:100900000080E0F0F83C1E0F070783C3C1E1E1E17E
:10091000E1E1C1C38307070F1E3C1800000000017E
:10092000FFFFFF3131FFFF0119191F1FFAF8FE1FEA
:100930001F1918180000000000FCFCFC646464E44B
:10094000E4E4041FFFFFC4C6E7753504040000009B
:1009500040424243C3FFFF4141414180868E3C38C3
:1009600010FFFFFF000000000018181010FFFF101C
:1009700018180C0C0C0C0CFFFFFF0C0C0C0C0C00D2
:10098000FCFFFF03000000F8FEFF0703010000006A
:100990000000010307FFFEF87070707070708080B7
:1009A000FFFFFFC4C4FFFF60640484E4FF7FFFF423
:1009B000C4040404000000101C1FEFE3E02C2CEF23
:1009C000EFEB2CECEEE7272FEEFCF81E1E040000E8
:1009D00080E0F07C1FFFFF02167E6C6061233736DB
:1009E00030FFFFFF181818000008181C0CFFFF0745
:1009F000030301010F3FFDE1C1E1FD3F0F030000D3
:100A0000010F3F7EF8E0C08003070F1E1C38383806
:100A100038381C1E0F070380C0E0C0000000010131
:100A200001010000101F1F000C0E0F070100000144
:100A300003070E0E0400000C0C0C0F0F0F0C0C0F14
:100A40000F0F0C0F0F0F0C0C0F0F0F6C6C0C000026
:100A500000010100000F0F00000000000000000076
:100A6000000F0F0F000000000000040C0C0F0F001F
:100A7000040C0C0C06060703030307060E0C0C0CF3
:100A80000000000000010307070F0E0E1C1C1C1CB9
:100A90001C1C1C0E0E0F07030300000000001F614A
:100AA000180718611F011F61180718611F011F61D6
:100AB000180718611F0160600000013F4040217F5E
:100AC00040417F420101417E400041417F404066FC
:100AD000494949493300013F404040217F40417F1F
:100AE0004201417E4000D629292927C100606000CB
:100AF000001C2241412200417F420101417E400011
:100B000000000000000000000000000000000000E5
:100B100000000000000000000000000000000000D5
:100B200000000000000000000000000000000000C5
:100B300000000000000000000000000000000000B5
:100B400000000000000000000000000000000000A5
:100B50000000000000000000000000000000000095
:100B60000000000000000001010101000000000081
:100B70000000000000000000000000000000000075
:100B80000000000000000000000000000000000065
:100B90000000000000000000000000000000000055
:100BA0000000000000000000000000000000000045
:100BB0000000000000000000000000000000000035
:100BC0000000000000000000000000000000000025
:100BD0000000000000000000000000000000000015
:100BE0000000000000000000000000000000000005
:100BF00000000000000000000000000000000000F5
:100C00000000C038E0000000203C2302022738200A
:100C100008F8888888700000203F202020110E00EE
:100C2000C0300808080838000718202020100800E5
:100C300008F808080810E000203F202020100F00CE
:100C400008F88888E8081000203F2020232018009A
:100C500008F88888E8081000203F20000300000002
:100C6000C03008080838000007182020221E0200A3
:100C700008F808000008F808203F210101213F2062
:100C8000000808F8080800000020203F202000008D
:100C900000000808F8080800C08080807F0000007D
:100CA00008F888C028180800203F200126382000B6
:100CB00008F8080000000000203F2020202030001D
:100CC00008F8F800F8F80800203F003F003F200037
:100CD00008F830C00008F808203F200007183F003F
:100CE000E01008080810E0000F10202020100F006E
:100CF00008F808080808F000203F21010101000061
:100D0000E01008080810E0000F18242438504F00A5
:100D100008F8888888887000203F2000030C302065
:100D200000708808080838000038202121221C00A3
:100D3000180808F8080818000000203F20000000EC
:100D400008F808000008F808001F202020201F00D5
:100D50000878880000C83808000007380E01000035
:100D6000F80800F80008F800033C0700073C0300FF
:100D7000081868808068180820302C03032C302065
:100D80000838C800C83808000000203F20000000D4
:100D900010080808C838080020382621202018002C
:100DA00000E010080810E000000F102020100F00D5
:100DB000001010F8000000000020203F202000005C
:100DC00000700808088870000030282422213000B4
:100DD00000300888884830000018202020110E00BC
:100DE0000000C02010F8000000070424243F240065
:100DF00000F80888880808000019212020110E003A
:100E000000E0108888180000000F112020110E004B
:100E100000380808C83808000000003F0000000043
:100E20000070880808887000001C222121221C0004
:100E300000E010080810E0000000312222110F002D
:100E4000000000000000000000010101010101019B
:100E50000000000000000000003030000000000032
:100E600000FE021222C2221A2242827222FE0000D8
:100E7000007F08040300030C04020126603F000009
:100E80002038A762300010089F6464940C000000B2
:100E9000222312121204027F222222227F03020046
:100EA000404048484848C8FF4848484848404000F3
:100EB00020201010080601FF01020408183010005D
:100EC00040414EC40044E45C47F444444404000000
:100ED0000040201F22424242425F424242424200C0
:100EE000080808FF8868242CB42526342C24200008
:100EF0000242817F02828A4E5332122E42C2020087
:100F00000000FC08080808FF08080808FC080000A2
:100F100000000702020202FF0202020207000000B4
:100F20000000E242424242424242427E0000000051
:100F300000003F202020202020202020203C1000E6
:100F4000000000F848484C4B4A484848F800000068
:100F5000000000FF4444444444444444FF00000073
:100F6000088868FF2848104844434448501010003F
:100F70000201007F0020222C212E30282722200071
:100F80000000000000000000000000000000000061
:100F90000000000000000000000000000000000051
:100FA0000000000000000000000000000000000041
:100FB0000000000000000000000000000000000031
:1013D000000000000000000000000000006CDC02C3
:1013E00000000000000000000102030406070809D5
:0813F0000000000000000000F5
:04000005080000C12E
:00000001FF
