:020000040800F2
:1000000040050020D50000083D0300083903000822
:1000100000000000000000000000000000000000E0
:10002000000000000000000000000000BB0300080A
:100030000000000000000000B903000841040008AF
:10004000E7000008E7000008E7000008E7000008F4
:10005000E7000008E7000008E70000086501000865
:10006000E7000008E7000008E7000008E7000008D4
:10007000E7000008E7000008E7000008E7000008C4
:10008000E7000008E700000800000000E7000008A3
:10009000E7000008E7000008E7000008E7000008A4
:1000A000E7000008E7000008E7000008E700000894
:1000B000E700000800000000E70000080000000062
:1000C0000348854600F03CF800480047C505000895
:1000D000400500200448804704480047FEE7FEE74B
:1000E000FEE7FEE7FEE7FEE791040008C100000816
:1000F00030B50B46014600202022012409E00D46C0
:10010000D5409D4205D31D469540491B2546954047
:1001100040191546521E002DF1DC30BD03460B433D
:100120009B0703D009E008C9121F08C0042AFAD2AD
:1001300003E00B78491C0370401C521EF9D2704733
:10014000064C0125064E05E02046E36807C82B4310
:1001500098471034B442F7D3FFF7B6FFFC06000807
:100160001C070008704700000149C8607047000084
:100170000020024030B5044604250B20000400F0A6
:10018000C7F80546042D17D10C4800690221084321
:100190000A4908610846446100694021084307494B
:1001A00008610B20000400F0B3F80546034800691D
:1001B0000221884301490861284630BD00200240E1
:1001C00004200B49C968C907C90F01D001200EE0FE
:1001D0000749C9681022114201D0022007E00449F2
:1001E000C9680422114201D0032000E004207047B6
:1001F0000020024070B505462C4609E02046FFF776
:10020000B9FF042802D10002241801E0012070BDCA
:1002100002488442F2D90020F9E7000000F8000803
:1002200010B500F063F83520FFF79EFF10BD000009
:10023000F8B504460E461746002500BF15E0AA0093
:10024000B158206800F01CF804280BD12068006821
:10025000A9007158884201D00220F8BD2068001D15
:10026000206001E00120F8E76D1CBD4203D2206848
:1002700002498842E3D90020EFE70000FBFF0008B5
:1002800078B506460C460425002000900B2000049B
:1002900000F03EF80546042D24D1134800690121E1
:1002A00008431149086134800B20000400F030F845
:1002B0000546042D10D1B01C0090200C0099088038
:1002C0000B20000400F024F80546074800694008A8
:1002D00040000549086105E0034800694008400006
:1002E00001490861284678BD0020024005480069A0
:1002F0008021084204D0044802494860034848600D
:10030000704700000020024023016745AB89EFCD14
:1003100010B503460424FFF753FF044603E0FFF73C
:100320004FFF04465B1E012C01D1002BF7D1002B9F
:1003300000D10524204610BD00BFFEE77047000035
:1003400010B5002819DA1A4A03071B0F083B9B084F
:100350009B00D2588307DC0EFF23A3409A438B07F0
:100360001B0E8407E40EA3401A43114B0407240F0D
:10037000083CA408A4001A5118E00E4A03231B02EB
:10038000D21883089B00D2588307DC0EFF23A340BA
:100390009A438B071B0E8407E40EA3401A43054BB8
:1003A000032424021B198408A4001A5110BD000064
:1003B0001CED00E000E100E0704770470CB5002044
:1003C0000190009011201C4908601C4840681B499E
:1003D0004860084640684860084640683F21090474
:1003E000884316494860084640680521C904084307
:1003F00012494860084600680121090608430F4970
:10040000086000BF0D480068012149060842F9D084
:100410000A484068800880000849486008464068EB
:10042000022108430549486000BF044840680C2188
:1004300008400828F9D10CBD0020024000100240FD
:100440007047000010B57D21C9000E480068FFF715
:100450004FFE0446601E0C49884201D901200CE081
:10046000601E0A4948610321081FFFF769FF002049
:1004700006498861072008610020002801D000BFDC
:10048000FEE710BD00000020FFFFFF0000E000E0DD
:1004900010B51B4800680121084319490860084647
:1004A00040681849084016494860084600681649DF
:1004B0000840134908600846006801218904884300
:1004C0000F490860084640683F21090488430C49E9
:1004D00048600846C06A00090001C8620846006B0F
:1004E000FF2154318843064908630846406B4008A1
:1004F0004000486300208860FFF760FF10BD0000E7
:10050000001002400CB8FFF8FFFFF6FE02E008C83A
:10051000121F08C1002AFAD170477047002001E07D
:1005200001C1121F002AFBD170470000F0B505463B
:100530000E46094F002406E0295D384600F024F8F5
:100540000746601C84B2B442F6DB384600F006F879
:1005500007463846F0BD0000FFFF000000210EE016
:100560000123DB03184201D0012200E000224304F2
:10057000180C002A01D0034B58404B1CD9B210294B
:10058000EEDB70472110000030B58022002314E01C
:100590000125ED03284201D0012400E00024450498
:1005A000280C0D46154201D0451CA8B2002C01D0E4
:1005B000034D684052105D1CEBB2082BE8DB30BDE8
:1005C0002110000010B50024FFF73CFFFF22293264
:1005D00031493248FFF7A2FD3048E13041790279D4
:1005E000080210432E49884220D13F212B48E93090
:1005F000FFF79CFF2949E131CA798B791102194330
:10060000884213D02748006827490840012149073C
:1006100088420BD123484468244804602149086873
:1006200080F3088800BF2148006880471B49487B49
:10063000097B000208431A49884217D11D2189020B
:100640001848FFF773FF154AD17B927B09021143CB
:1006500088420BD1114AD17B927B09021143084693
:1006600000F028F8012801D100BFFEE7104800681B
:100670000D4908400121490788420BD10C484468C4
:100680000A4804600A49086880F3088800BF0748E0
:1006900000688047002010BD00FC00081800002002
:1006A000A4A10000008800080000FE2F1400002014
:1006B00000140008FEB504460227002001900D4EEC
:1006C0000D480090FFF7ACFD3046FFF793FD1D226B
:1006D000120231466846FFF7ABFD1D21890206482C
:1006E000FFF724FF85B2AC4201D10020FEBD0120FE
:1006F000FCE700000088000800140008E813000868
:1007000000000020180000000C050008001400087C
:1007100018000020280500001C050008000000004B
:1007200000000000000000000000000000000000C9
:1007300000000000000000000000000000000000B9
:1007400000000000000000000000000000000000A9
:100750000000000000000000000000000000000099
:100760000000000000000000000000000000000089
:100770000000000000000000000000000000000079
:100780000000000000000000000000000000000069
:100790000000000000000000000000000000000059
:1007A0000000000000000000000000000000000049
:1007B0000000000000000000000000000000000039
:1007C0000000000000000000000000000000000029
:1007D0000000000000000000000000000000000019
:1007E0000000000000000000000000000000000009
:1007F00000000000000000000000000000000000F9
:1008000000000000000000000000000000000000E8
:1008100000000000000000000000000000000000D8
:1008200000000000000000000000000000000000C8
:1008300000000000000000000000000000000000B8
:1008400000000000000000000000000000000000A8
:100850000000000000000000000000000000000098
:100860000000000000000000000000000000000088
:100870000000000000000000000000000000000078
:10088000000000000000000000808080C0C0C0C0E8
:10089000C0C0C08080800000000000000000000098
:1008A000000000000000000000808080000000C008
:1008B000C0800000000000000000000000000000F8
:1008C00000000080808000C0C080000000000000A8
:1008D0000000000000000080808000000000000098
:1008E0000080808000000000000000000080808008
:1008F0000000000000000080808000000000000078
:100900000080E0F0F83C1E0F070783C3C1E1E1E17E
:10091000E1E1C1C38307070F1E3C1800000000017E
:10092000FFFFFF3131FFFF0119191F1FFAF8FE1FEA
:100930001F1918180000000000FCFCFC646464E44B
:10094000E4E4041FFFFFC4C6E7753504040000009B
:1009500040424243C3FFFF4141414180868E3C38C3
:1009600010FFFFFF000000000018181010FFFF101C
:1009700018180C0C0C0C0CFFFFFF0C0C0C0C0C00D2
:10098000FCFFFF03000000F8FEFF0703010000006A
:100990000000010307FFFEF87070707070708080B7
:1009A000FFFFFFC4C4FFFF60640484E4FF7FFFF423
:1009B000C4040404000000101C1FEFE3E02C2CEF23
:1009C000EFEB2CECEEE7272FEEFCF81E1E040000E8
:1009D00080E0F07C1FFFFF02167E6C6061233736DB
:1009E00030FFFFFF181818000008181C0CFFFF0745
:1009F000030301010F3FFDE1C1E1FD3F0F030000D3
:100A0000010F3F7EF8E0C08003070F1E1C38383806
:100A100038381C1E0F070380C0E0C0000000010131
:100A200001010000101F1F000C0E0F070100000144
:100A300003070E0E0400000C0C0C0F0F0F0C0C0F14
:100A40000F0F0C0F0F0F0C0C0F0F0F6C6C0C000026
:100A500000010100000F0F00000000000000000076
:100A6000000F0F0F000000000000040C0C0F0F001F
:100A7000040C0C0C06060703030307060E0C0C0CF3
:100A80000000000000010307070F0E0E1C1C1C1CB9
:100A90001C1C1C0E0E0F07030300000000001F614A
:100AA000180718611F011F61180718611F011F61D6
:100AB000180718611F0160600000013F4040217F5E
:100AC00040417F420101417E400041417F404066FC
:100AD000494949493300013F404040217F40417F1F
:100AE0004201417E4000D629292927C100606000CB
:100AF000001C2241412200417F420101417E400011
:100B000000000000000000000000000000000000E5
:100B100000000000000000000000000000000000D5
:100B200000000000000000000000000000000000C5
:100B300000000000000000000000000000000000B5
:100B400000000000000000000000000000000000A5
:100B50000000000000000000000000000000000095
:100B60000000000000000001010101000000000081
:100B70000000000000000000000000000000000075
:100B80000000000000000000000000000000000065
:100B90000000000000000000000000000000000055
:100BA0000000000000000000000000000000000045
:100BB0000000000000000000000000000000000035
:100BC0000000000000000000000000000000000025
:100BD0000000000000000000000000000000000015
:100BE0000000000000000000000000000000000005
:100BF00000000000000000000000000000000000F5
:100C00000000C038E0000000203C2302022738200A
:100C100008F8888888700000203F202020110E00EE
:100C2000C0300808080838000718202020100800E5
:100C300008F808080810E000203F202020100F00CE
:100C400008F88888E8081000203F2020232018009A
:100C500008F88888E8081000203F20000300000002
:100C6000C03008080838000007182020221E0200A3
:100C700008F808000008F808203F210101213F2062
:100C8000000808F8080800000020203F202000008D
:100C900000000808F8080800C08080807F0000007D
:100CA00008F888C028180800203F200126382000B6
:100CB00008F8080000000000203F2020202030001D
:100CC00008F8F800F8F80800203F003F003F200037
:100CD00008F830C00008F808203F200007183F003F
:100CE000E01008080810E0000F10202020100F006E
:100CF00008F808080808F000203F21010101000061
:100D0000E01008080810E0000F18242438504F00A5
:100D100008F8888888887000203F2000030C302065
:100D200000708808080838000038202121221C00A3
:100D3000180808F8080818000000203F20000000EC
:100D400008F808000008F808001F202020201F00D5
:100D50000878880000C83808000007380E01000035
:100D6000F80800F80008F800033C0700073C0300FF
:100D7000081868808068180820302C03032C302065
:100D80000838C800C83808000000203F20000000D4
:100D900010080808C838080020382621202018002C
:100DA00000E010080810E000000F102020100F00D5
:100DB000001010F8000000000020203F202000005C
:100DC00000700808088870000030282422213000B4
:100DD00000300888884830000018202020110E00BC
:100DE0000000C02010F8000000070424243F240065
:100DF00000F80888880808000019212020110E003A
:100E000000E0108888180000000F112020110E004B
:100E100000380808C83808000000003F0000000043
:100E20000070880808887000001C222121221C0004
:100E300000E010080810E0000000312222110F002D
:100E4000000000000000000000010101010101019B
:100E50000000000000000000003030000000000032
:100E600000FE021222C2221A2242827222FE0000D8
:100E7000007F08040300030C04020126603F000009
:100E80002038A762300010089F6464940C000000B2
:100E9000222312121204027F222222227F03020046
:100EA000404048484848C8FF4848484848404000F3
:100EB00020201010080601FF01020408183010005D
:100EC00040414EC40044E45C47F444444404000000
:100ED0000040201F22424242425F424242424200C0
:100EE000080808FF8868242CB42526342C24200008
:100EF0000242817F02828A4E5332122E42C2020087
:100F00000000FC08080808FF08080808FC080000A2
:100F100000000702020202FF0202020207000000B4
:100F20000000E242424242424242427E0000000051
:100F300000003F202020202020202020203C1000E6
:100F4000000000F848484C4B4A484848F800000068
:100F5000000000FF4444444444444444FF00000073
:100F6000088868FF2848104844434448501010003F
:100F70000201007F0020222C212E30282722200071
:100F80000000000000000000000000000000000061
:100F90000000000000000000000000000000000051
:100FA0000000000000000000000000000000000041
:100FB0000000000000000000000000000000000031
:1013E0000000000000000000006CDC0200000000B3
:1013F00000000000010203040607080900000000C5
:04000005080000C12E
:00000001FF
